{
  "_format": "hh-sol-artifact-1",
  "contractName": "FarmDAO",
  "sourceName": "contracts/Dao.sol",
  "abi": [
    {
      "inputs": [
        {
          "internalType": "string",
          "name": "_title",
          "type": "string"
        }
      ],
      "stateMutability": "nonpayable",
      "type": "constructor"
    },
    {
      "anonymous": false,
      "inputs": [
        {
          "indexed": false,
          "internalType": "address",
          "name": "farmerAddress1",
          "type": "address"
        },
        {
          "indexed": false,
          "internalType": "uint256",
          "name": "daoId",
          "type": "uint256"
        },
        {
          "indexed": false,
          "internalType": "string",
          "name": "daoName",
          "type": "string"
        }
      ],
      "name": "DaoCreated",
      "type": "event"
    },
    {
      "anonymous": false,
      "inputs": [
        {
          "indexed": false,
          "internalType": "uint256",
          "name": "daoId",
          "type": "uint256"
        }
      ],
      "name": "DaoVerified",
      "type": "event"
    },
    {
      "anonymous": false,
      "inputs": [
        {
          "indexed": false,
          "internalType": "address",
          "name": "investor",
          "type": "address"
        },
        {
          "indexed": false,
          "internalType": "uint256",
          "name": "amount",
          "type": "uint256"
        }
      ],
      "name": "InvestmentAdded",
      "type": "event"
    },
    {
      "inputs": [
        {
          "internalType": "uint256",
          "name": "daoId",
          "type": "uint256"
        }
      ],
      "name": "addInvestment",
      "outputs": [],
      "stateMutability": "payable",
      "type": "function"
    },
    {
      "inputs": [
        {
          "internalType": "address",
          "name": "_farmer1",
          "type": "address"
        },
        {
          "internalType": "address",
          "name": "_farmer2",
          "type": "address"
        },
        {
          "internalType": "string",
          "name": "_description",
          "type": "string"
        },
        {
          "internalType": "string",
          "name": "_name1",
          "type": "string"
        },
        {
          "internalType": "string",
          "name": "_name2",
          "type": "string"
        },
        {
          "internalType": "string",
          "name": "_name",
          "type": "string"
        },
        {
          "internalType": "string",
          "name": "_farmReports",
          "type": "string"
        },
        {
          "internalType": "string",
          "name": "_financialReports",
          "type": "string"
        }
      ],
      "name": "createDao",
      "outputs": [],
      "stateMutability": "nonpayable",
      "type": "function"
    },
    {
      "inputs": [],
      "name": "daoCreated",
      "outputs": [
        {
          "internalType": "bool",
          "name": "",
          "type": "bool"
        }
      ],
      "stateMutability": "view",
      "type": "function"
    },
    {
      "inputs": [
        {
          "internalType": "address",
          "name": "",
          "type": "address"
        },
        {
          "internalType": "uint256",
          "name": "",
          "type": "uint256"
        }
      ],
      "name": "daoFarmers",
      "outputs": [
        {
          "internalType": "address",
          "name": "",
          "type": "address"
        }
      ],
      "stateMutability": "view",
      "type": "function"
    },
    {
      "inputs": [],
      "name": "daoID",
      "outputs": [
        {
          "internalType": "uint256",
          "name": "",
          "type": "uint256"
        }
      ],
      "stateMutability": "view",
      "type": "function"
    },
    {
      "inputs": [
        {
          "internalType": "uint256",
          "name": "",
          "type": "uint256"
        }
      ],
      "name": "daos",
      "outputs": [
        {
          "internalType": "address",
          "name": "address1",
          "type": "address"
        },
        {
          "internalType": "address",
          "name": "address2",
          "type": "address"
        },
        {
          "internalType": "string",
          "name": "name1",
          "type": "string"
        },
        {
          "internalType": "string",
          "name": "name2",
          "type": "string"
        },
        {
          "internalType": "string",
          "name": "description",
          "type": "string"
        },
        {
          "internalType": "string",
          "name": "farmReports",
          "type": "string"
        },
        {
          "internalType": "string",
          "name": "financialReports",
          "type": "string"
        },
        {
          "internalType": "string",
          "name": "name",
          "type": "string"
        },
        {
          "internalType": "uint256",
          "name": "id",
          "type": "uint256"
        },
        {
          "internalType": "uint256",
          "name": "amountInvested",
          "type": "uint256"
        },
        {
          "internalType": "bool",
          "name": "verified",
          "type": "bool"
        }
      ],
      "stateMutability": "view",
      "type": "function"
    },
    {
      "inputs": [],
      "name": "farmer1",
      "outputs": [
        {
          "internalType": "address",
          "name": "",
          "type": "address"
        }
      ],
      "stateMutability": "view",
      "type": "function"
    },
    {
      "inputs": [],
      "name": "farmer2",
      "outputs": [
        {
          "internalType": "address",
          "name": "",
          "type": "address"
        }
      ],
      "stateMutability": "view",
      "type": "function"
    },
    {
      "inputs": [],
      "name": "getAllDaos",
      "outputs": [
        {
          "components": [
            {
              "internalType": "address",
              "name": "address1",
              "type": "address"
            },
            {
              "internalType": "address",
              "name": "address2",
              "type": "address"
            },
            {
              "internalType": "string",
              "name": "name1",
              "type": "string"
            },
            {
              "internalType": "string",
              "name": "name2",
              "type": "string"
            },
            {
              "internalType": "string",
              "name": "description",
              "type": "string"
            },
            {
              "internalType": "string",
              "name": "farmReports",
              "type": "string"
            },
            {
              "internalType": "string",
              "name": "financialReports",
              "type": "string"
            },
            {
              "internalType": "string",
              "name": "name",
              "type": "string"
            },
            {
              "internalType": "uint256",
              "name": "id",
              "type": "uint256"
            },
            {
              "internalType": "uint256",
              "name": "amountInvested",
              "type": "uint256"
            },
            {
              "internalType": "address[]",
              "name": "investors",
              "type": "address[]"
            },
            {
              "internalType": "bool",
              "name": "verified",
              "type": "bool"
            }
          ],
          "internalType": "struct FarmDAO.Dao[]",
          "name": "",
          "type": "tuple[]"
        }
      ],
      "stateMutability": "view",
      "type": "function"
    },
    {
      "inputs": [],
      "name": "getAllInvestorInfo",
      "outputs": [
        {
          "components": [
            {
              "internalType": "address",
              "name": "investorAddress",
              "type": "address"
            },
            {
              "internalType": "string",
              "name": "name",
              "type": "string"
            }
          ],
          "internalType": "struct FarmDAO.Investor[]",
          "name": "",
          "type": "tuple[]"
        }
      ],
      "stateMutability": "view",
      "type": "function"
    },
    {
      "inputs": [
        {
          "internalType": "uint256",
          "name": "daoId",
          "type": "uint256"
        }
      ],
      "name": "getCurrentAmountAvailable",
      "outputs": [
        {
          "internalType": "uint256",
          "name": "",
          "type": "uint256"
        }
      ],
      "stateMutability": "view",
      "type": "function"
    },
    {
      "inputs": [
        {
          "internalType": "uint256",
          "name": "daoId",
          "type": "uint256"
        }
      ],
      "name": "getTotalAmountWithdrawn",
      "outputs": [
        {
          "internalType": "uint256",
          "name": "",
          "type": "uint256"
        }
      ],
      "stateMutability": "view",
      "type": "function"
    },
    {
      "inputs": [
        {
          "internalType": "uint256",
          "name": "daoId",
          "type": "uint256"
        }
      ],
      "name": "getTotalInvestment",
      "outputs": [
        {
          "internalType": "uint256",
          "name": "",
          "type": "uint256"
        }
      ],
      "stateMutability": "view",
      "type": "function"
    },
    {
      "inputs": [
        {
          "internalType": "address",
          "name": "investor",
          "type": "address"
        }
      ],
      "name": "getTotalInvestmentByInvestor",
      "outputs": [
        {
          "internalType": "uint256",
          "name": "",
          "type": "uint256"
        }
      ],
      "stateMutability": "view",
      "type": "function"
    },
    {
      "inputs": [
        {
          "internalType": "address",
          "name": "investor",
          "type": "address"
        }
      ],
      "name": "getTotalNumberOfDaosByInvestor",
      "outputs": [
        {
          "internalType": "uint256",
          "name": "",
          "type": "uint256"
        }
      ],
      "stateMutability": "view",
      "type": "function"
    },
    {
      "inputs": [],
      "name": "getVerifiedAddresses",
      "outputs": [
        {
          "internalType": "address[]",
          "name": "",
          "type": "address[]"
        }
      ],
      "stateMutability": "view",
      "type": "function"
    },
    {
      "inputs": [
        {
          "internalType": "address",
          "name": "",
          "type": "address"
        }
      ],
      "name": "investments",
      "outputs": [
        {
          "internalType": "uint256",
          "name": "",
          "type": "uint256"
        }
      ],
      "stateMutability": "view",
      "type": "function"
    },
    {
      "inputs": [
        {
          "internalType": "address",
          "name": "_address",
          "type": "address"
        }
      ],
      "name": "isAddressVerified",
      "outputs": [
        {
          "internalType": "bool",
          "name": "",
          "type": "bool"
        }
      ],
      "stateMutability": "view",
      "type": "function"
    },
    {
      "inputs": [
        {
          "internalType": "address",
          "name": "investor",
          "type": "address"
        }
      ],
      "name": "isInvestorRegistered",
      "outputs": [
        {
          "internalType": "bool",
          "name": "",
          "type": "bool"
        }
      ],
      "stateMutability": "view",
      "type": "function"
    },
    {
      "inputs": [],
      "name": "minimumInvestment",
      "outputs": [
        {
          "internalType": "uint256",
          "name": "",
          "type": "uint256"
        }
      ],
      "stateMutability": "view",
      "type": "function"
    },
    {
      "inputs": [],
      "name": "owner",
      "outputs": [
        {
          "internalType": "address",
          "name": "",
          "type": "address"
        }
      ],
      "stateMutability": "view",
      "type": "function"
    },
    {
      "inputs": [
        {
          "internalType": "address",
          "name": "",
          "type": "address"
        },
        {
          "internalType": "uint256",
          "name": "",
          "type": "uint256"
        }
      ],
      "name": "partialAmountPaid",
      "outputs": [
        {
          "internalType": "uint256",
          "name": "",
          "type": "uint256"
        }
      ],
      "stateMutability": "view",
      "type": "function"
    },
    {
      "inputs": [
        {
          "internalType": "string",
          "name": "name",
          "type": "string"
        }
      ],
      "name": "registerInvestor",
      "outputs": [],
      "stateMutability": "nonpayable",
      "type": "function"
    },
    {
      "inputs": [
        {
          "internalType": "uint256",
          "name": "",
          "type": "uint256"
        }
      ],
      "name": "registeredInvestors",
      "outputs": [
        {
          "internalType": "address",
          "name": "investorAddress",
          "type": "address"
        },
        {
          "internalType": "string",
          "name": "name",
          "type": "string"
        }
      ],
      "stateMutability": "view",
      "type": "function"
    },
    {
      "inputs": [
        {
          "internalType": "uint256",
          "name": "daoId",
          "type": "uint256"
        }
      ],
      "name": "removeDao",
      "outputs": [],
      "stateMutability": "nonpayable",
      "type": "function"
    },
    {
      "inputs": [
        {
          "internalType": "uint256",
          "name": "daoId",
          "type": "uint256"
        },
        {
          "internalType": "uint256",
          "name": "amountToRepay",
          "type": "uint256"
        }
      ],
      "name": "repayFunds",
      "outputs": [],
      "stateMutability": "nonpayable",
      "type": "function"
    },
    {
      "inputs": [],
      "name": "title",
      "outputs": [
        {
          "internalType": "string",
          "name": "",
          "type": "string"
        }
      ],
      "stateMutability": "view",
      "type": "function"
    },
    {
      "inputs": [
        {
          "internalType": "uint256",
          "name": "",
          "type": "uint256"
        }
      ],
      "name": "totalAmountWithdrawn",
      "outputs": [
        {
          "internalType": "uint256",
          "name": "",
          "type": "uint256"
        }
      ],
      "stateMutability": "view",
      "type": "function"
    },
    {
      "inputs": [
        {
          "internalType": "uint256",
          "name": "",
          "type": "uint256"
        }
      ],
      "name": "totalDAOs",
      "outputs": [
        {
          "internalType": "address",
          "name": "address1",
          "type": "address"
        },
        {
          "internalType": "address",
          "name": "address2",
          "type": "address"
        },
        {
          "internalType": "string",
          "name": "name1",
          "type": "string"
        },
        {
          "internalType": "string",
          "name": "name2",
          "type": "string"
        },
        {
          "internalType": "string",
          "name": "description",
          "type": "string"
        },
        {
          "internalType": "string",
          "name": "farmReports",
          "type": "string"
        },
        {
          "internalType": "string",
          "name": "financialReports",
          "type": "string"
        },
        {
          "internalType": "string",
          "name": "name",
          "type": "string"
        },
        {
          "internalType": "uint256",
          "name": "id",
          "type": "uint256"
        },
        {
          "internalType": "uint256",
          "name": "amountInvested",
          "type": "uint256"
        },
        {
          "internalType": "bool",
          "name": "verified",
          "type": "bool"
        }
      ],
      "stateMutability": "view",
      "type": "function"
    },
    {
      "inputs": [],
      "name": "totalInvestment",
      "outputs": [
        {
          "internalType": "uint256",
          "name": "",
          "type": "uint256"
        }
      ],
      "stateMutability": "view",
      "type": "function"
    },
    {
      "inputs": [
        {
          "internalType": "address",
          "name": "",
          "type": "address"
        }
      ],
      "name": "totalInvestmentByEachInvestor",
      "outputs": [
        {
          "internalType": "uint256",
          "name": "",
          "type": "uint256"
        }
      ],
      "stateMutability": "view",
      "type": "function"
    },
    {
      "inputs": [
        {
          "internalType": "address",
          "name": "",
          "type": "address"
        }
      ],
      "name": "totalNumberOfDaosByInvestor",
      "outputs": [
        {
          "internalType": "uint256",
          "name": "",
          "type": "uint256"
        }
      ],
      "stateMutability": "view",
      "type": "function"
    },
    {
      "inputs": [
        {
          "internalType": "uint256",
          "name": "daoId",
          "type": "uint256"
        }
      ],
      "name": "unverifyDao",
      "outputs": [],
      "stateMutability": "nonpayable",
      "type": "function"
    },
    {
      "inputs": [
        {
          "internalType": "uint256",
          "name": "daoId",
          "type": "uint256"
        }
      ],
      "name": "verifyDao",
      "outputs": [],
      "stateMutability": "nonpayable",
      "type": "function"
    },
    {
      "inputs": [
        {
          "internalType": "uint256",
          "name": "daoId",
          "type": "uint256"
        },
        {
          "internalType": "uint256",
          "name": "amountToWithdraw",
          "type": "uint256"
        }
      ],
      "name": "withDrawDFunds",
      "outputs": [],
      "stateMutability": "nonpayable",
      "type": "function"
    }
  ],
  "bytecode": "0x60806040523480156200001157600080fd5b50604051620054b6380380620054b6833981810160405281019062000037919062000348565b8060009081620000489190620005e4565b50600a7313ef924eb7408e90278b86b659960afb00ddae619080600181540180825580915050600190039060005260206000200160009091909190916101000a81548173ffffffffffffffffffffffffffffffffffffffff021916908373ffffffffffffffffffffffffffffffffffffffff160217905550600a7323792579e2979a98d12a33a85e35914079304a569080600181540180825580915050600190039060005260206000200160009091909190916101000a81548173ffffffffffffffffffffffffffffffffffffffff021916908373ffffffffffffffffffffffffffffffffffffffff160217905550600a73dc4f6ea5856eda459286e8d0ef42e389d07137ff9080600181540180825580915050600190039060005260206000200160009091909190916101000a81548173ffffffffffffffffffffffffffffffffffffffff021916908373ffffffffffffffffffffffffffffffffffffffff16021790555050620006cb565b6000604051905090565b600080fd5b600080fd5b600080fd5b600080fd5b6000601f19601f8301169050919050565b7f4e487b7100000000000000000000000000000000000000000000000000000000600052604160045260246000fd5b6200021e82620001d3565b810181811067ffffffffffffffff8211171562000240576200023f620001e4565b5b80604052505050565b600062000255620001b5565b905062000263828262000213565b919050565b600067ffffffffffffffff821115620002865762000285620001e4565b5b6200029182620001d3565b9050602081019050919050565b60005b83811015620002be578082015181840152602081019050620002a1565b60008484015250505050565b6000620002e1620002db8462000268565b62000249565b9050828152602081018484840111156200030057620002ff620001ce565b5b6200030d8482856200029e565b509392505050565b600082601f8301126200032d576200032c620001c9565b5b81516200033f848260208601620002ca565b91505092915050565b600060208284031215620003615762000360620001bf565b5b600082015167ffffffffffffffff811115620003825762000381620001c4565b5b620003908482850162000315565b91505092915050565b600081519050919050565b7f4e487b7100000000000000000000000000000000000000000000000000000000600052602260045260246000fd5b60006002820490506001821680620003ec57607f821691505b602082108103620004025762000401620003a4565b5b50919050565b60008190508160005260206000209050919050565b60006020601f8301049050919050565b600082821b905092915050565b6000600883026200046c7fffffffffffffffffffffffffffffffffffffffffffffffffffffffffffffffff826200042d565b6200047886836200042d565b95508019841693508086168417925050509392505050565b6000819050919050565b6000819050919050565b6000620004c5620004bf620004b98462000490565b6200049a565b62000490565b9050919050565b6000819050919050565b620004e183620004a4565b620004f9620004f082620004cc565b8484546200043a565b825550505050565b600090565b6200051062000501565b6200051d818484620004d6565b505050565b5b8181101562000545576200053960008262000506565b60018101905062000523565b5050565b601f82111562000594576200055e8162000408565b62000569846200041d565b8101602085101562000579578190505b6200059162000588856200041d565b83018262000522565b50505b505050565b600082821c905092915050565b6000620005b96000198460080262000599565b1980831691505092915050565b6000620005d48383620005a6565b9150826002028217905092915050565b620005ef8262000399565b67ffffffffffffffff8111156200060b576200060a620001e4565b5b620006178254620003d3565b6200062482828562000549565b600060209050601f8311600181146200065c576000841562000647578287015190505b620006538582620005c6565b865550620006c3565b601f1984166200066c8662000408565b60005b8281101562000696578489015182556001820191506020850194506020810190506200066f565b86831015620006b65784890151620006b2601f891682620005a6565b8355505b6001600288020188555050505b505050505050565b614ddb80620006db6000396000f3fe6080604052600436106102045760003560e01c806393cead5e11610118578063ccbbd260116100a0578063da9dd8bf1161006f578063da9dd8bf1461081f578063eb352c811461085c578063ec3246a214610885578063f3f0cd91146108ae578063fe714f64146108d957610204565b8063ccbbd26014610729578063ce99886d14610770578063d19fa48e1461079b578063d840b4df146107d857610204565b8063aa5b6d4c116100e7578063aa5b6d4c14610642578063b3afc4391461066d578063c89e6eca14610698578063c9525567146106d5578063ca3f04b0146106fe57610204565b806393cead5e1461054e57806396b988621461058b5780639abad058146105c85780639c5f83851461060557610204565b80634a79d50c1161019b578063574eb0331161016a578063574eb033146104645780635e60ab90146104a1578063610c8ced146104ca578063808237cc146104e65780638da5cb5b1461052357610204565b80634a79d50c146103a65780634c54114c146103d157806352ff15cd146103fc578063554609721461042757610204565b80631da7180d116101d75780631da7180d146102c35780632b925b251461030157806334422a471461032c5780633adfa93b1461036957610204565b8063042387c1146102095780630796ed391461023257806310ea13df1461026f5780631cb70fb91461029a575b600080fd5b34801561021557600080fd5b50610230600480360381019061022b91906137da565b610902565b005b34801561023e57600080fd5b5061025960048036038101906102549190613938565b610ea6565b604051610266919061397e565b60405180910390f35b34801561027b57600080fd5b50610284610eef565b604051610291919061397e565b60405180910390f35b3480156102a657600080fd5b506102c160048036038101906102bc91906139c5565b610ef5565b005b3480156102cf57600080fd5b506102ea60048036038101906102e591906139c5565b6114f3565b6040516102f8929190613a80565b60405180910390f35b34801561030d57600080fd5b506103166115cf565b604051610323919061397e565b60405180910390f35b34801561033857600080fd5b50610353600480360381019061034e91906139c5565b6115d5565b604051610360919061397e565b60405180910390f35b34801561037557600080fd5b50610390600480360381019061038b9190613938565b6115f5565b60405161039d919061397e565b60405180910390f35b3480156103b257600080fd5b506103bb61160d565b6040516103c89190613ab0565b60405180910390f35b3480156103dd57600080fd5b506103e661169b565b6040516103f3919061397e565b60405180910390f35b34801561040857600080fd5b506104116116a1565b60405161041e9190613b90565b60405180910390f35b34801561043357600080fd5b5061044e600480360381019061044991906139c5565b61172f565b60405161045b919061397e565b60405180910390f35b34801561047057600080fd5b5061048b60048036038101906104869190613bb2565b611747565b6040516104989190613bf2565b60405180910390f35b3480156104ad57600080fd5b506104c860048036038101906104c391906139c5565b611795565b005b6104e460048036038101906104df91906139c5565b61189d565b005b3480156104f257600080fd5b5061050d60048036038101906105089190613938565b611b24565b60405161051a919061397e565b60405180910390f35b34801561052f57600080fd5b50610538611b6d565b6040516105459190613bf2565b60405180910390f35b34801561055a57600080fd5b50610575600480360381019061057091906139c5565b611b93565b604051610582919061397e565b60405180910390f35b34801561059757600080fd5b506105b260048036038101906105ad9190613938565b611bb8565b6040516105bf919061397e565b60405180910390f35b3480156105d457600080fd5b506105ef60048036038101906105ea9190613bb2565b611bd0565b6040516105fc919061397e565b60405180910390f35b34801561061157600080fd5b5061062c60048036038101906106279190613938565b611bf5565b6040516106399190613c28565b60405180910390f35b34801561064e57600080fd5b50610657611caa565b6040516106649190613f0a565b60405180910390f35b34801561067957600080fd5b5061068261224f565b60405161068f9190613c28565b60405180910390f35b3480156106a457600080fd5b506106bf60048036038101906106ba91906139c5565b612262565b6040516106cc919061397e565b60405180910390f35b3480156106e157600080fd5b506106fc60048036038101906106f791906139c5565b61227f565b005b34801561070a57600080fd5b50610713612387565b604051610720919061402b565b60405180910390f35b34801561073557600080fd5b50610750600480360381019061074b91906139c5565b612578565b6040516107679b9a9998979695949392919061404d565b60405180910390f35b34801561077c57600080fd5b5061078561294f565b6040516107929190613bf2565b60405180910390f35b3480156107a757600080fd5b506107c260048036038101906107bd9190613938565b612975565b6040516107cf919061397e565b60405180910390f35b3480156107e457600080fd5b506107ff60048036038101906107fa91906139c5565b61298d565b6040516108169b9a9998979695949392919061404d565b60405180910390f35b34801561082b57600080fd5b5061084660048036038101906108419190613938565b612d74565b6040516108539190613c28565b60405180910390f35b34801561086857600080fd5b50610883600480360381019061087e9190614122565b612e22565b005b34801561089157600080fd5b506108ac60048036038101906108a79190614162565b613057565b005b3480156108ba57600080fd5b506108c36131a2565b6040516108d09190613bf2565b60405180910390f35b3480156108e557600080fd5b5061090060048036038101906108fb9190614122565b6131c8565b005b60086000815480929190610915906141da565b9190505550600080600854905060006040518061018001604052808c73ffffffffffffffffffffffffffffffffffffffff1681526020018b73ffffffffffffffffffffffffffffffffffffffff1681526020018981526020018881526020018a8152602001868152602001858152602001878152602001838152602001848152602001600067ffffffffffffffff8111156109b3576109b26136af565b5b6040519080825280602002602001820160405280156109e15781602001602082028036833780820191505090505b50815260200160001515815250905080600d600084815260200190815260200160002060008201518160000160006101000a81548173ffffffffffffffffffffffffffffffffffffffff021916908373ffffffffffffffffffffffffffffffffffffffff16021790555060208201518160010160006101000a81548173ffffffffffffffffffffffffffffffffffffffff021916908373ffffffffffffffffffffffffffffffffffffffff1602179055506040820151816002019081610aa7919061442e565b506060820151816003019081610abd919061442e565b506080820151816004019081610ad3919061442e565b5060a0820151816005019081610ae9919061442e565b5060c0820151816006019081610aff919061442e565b5060e0820151816007019081610b15919061442e565b506101008201518160080155610120820151816009015561014082015181600a019080519060200190610b49929190613409565b5061016082015181600b0160006101000a81548160ff02191690831515021790555090505060098190806001815401808255809150506001900390600052602060002090600c020160009091909190915060008201518160000160006101000a81548173ffffffffffffffffffffffffffffffffffffffff021916908373ffffffffffffffffffffffffffffffffffffffff16021790555060208201518160010160006101000a81548173ffffffffffffffffffffffffffffffffffffffff021916908373ffffffffffffffffffffffffffffffffffffffff1602179055506040820151816002019081610c3d919061442e565b506060820151816003019081610c53919061442e565b506080820151816004019081610c69919061442e565b5060a0820151816005019081610c7f919061442e565b5060c0820151816006019081610c95919061442e565b5060e0820151816007019081610cab919061442e565b506101008201518160080155610120820151816009015561014082015181600a019080519060200190610cdf929190613409565b5061016082015181600b0160006101000a81548160ff0219169083151502179055505050600c60003073ffffffffffffffffffffffffffffffffffffffff1673ffffffffffffffffffffffffffffffffffffffff1681526020019081526020016000208b9080600181540180825580915050600190039060005260206000200160009091909190916101000a81548173ffffffffffffffffffffffffffffffffffffffff021916908373ffffffffffffffffffffffffffffffffffffffff160217905550600c60003073ffffffffffffffffffffffffffffffffffffffff1673ffffffffffffffffffffffffffffffffffffffff1681526020019081526020016000208a9080600181540180825580915050600190039060005260206000200160009091909190916101000a81548173ffffffffffffffffffffffffffffffffffffffff021916908373ffffffffffffffffffffffffffffffffffffffff1602179055506001600760006101000a81548160ff0219169083151502179055507f0acd9bdc7b641798c00bfa4f97f5c6c7dee74f9d8edde3bceb1294505b1db6588b8388604051610e9193929190614500565b60405180910390a15050505050505050505050565b6000600f60008373ffffffffffffffffffffffffffffffffffffffff1673ffffffffffffffffffffffffffffffffffffffff168152602001908152602001600020549050919050565b60045481565b610efe33612d74565b610f3d576040517f08c379a0000000000000000000000000000000000000000000000000000000008152600401610f349061458a565b60405180910390fd5b600081118015610f4f57506008548111155b610f8e576040517f08c379a0000000000000000000000000000000000000000000000000000000008152600401610f85906145f6565b60405180910390fd5b6000600d6000838152602001908152602001600020905080600b0160009054906101000a900460ff1615610ff7576040517f08c379a0000000000000000000000000000000000000000000000000000000008152600401610fee90614662565b60405180910390fd5b60006001836110069190614682565b9050600980549050811061104f576040517f08c379a000000000000000000000000000000000000000000000000000000000815260040161104690614702565b60405180910390fd5b826009828154811061106457611063614722565b5b90600052602060002090600c020160080154146110b6576040517f08c379a00000000000000000000000000000000000000000000000000000000081526004016110ad9061479d565b60405180910390fd5b600960016009805490506110ca9190614682565b815481106110db576110da614722565b5b90600052602060002090600c0201600982815481106110fd576110fc614722565b5b90600052602060002090600c02016000820160009054906101000a900473ffffffffffffffffffffffffffffffffffffffff168160000160006101000a81548173ffffffffffffffffffffffffffffffffffffffff021916908373ffffffffffffffffffffffffffffffffffffffff1602179055506001820160009054906101000a900473ffffffffffffffffffffffffffffffffffffffff168160010160006101000a81548173ffffffffffffffffffffffffffffffffffffffff021916908373ffffffffffffffffffffffffffffffffffffffff160217905550600282018160020190816111ed91906147d3565b506003820181600301908161120291906147d3565b506004820181600401908161121791906147d3565b506005820181600501908161122c91906147d3565b506006820181600601908161124191906147d3565b506007820181600701908161125691906147d3565b506008820154816008015560098201548160090155600a820181600a01908054611281929190613493565b50600b820160009054906101000a900460ff1681600b0160006101000a81548160ff02191690831515021790555090505060098054806112c4576112c36148bb565b5b60019003818190600052602060002090600c0201600080820160006101000a81549073ffffffffffffffffffffffffffffffffffffffff02191690556001820160006101000a81549073ffffffffffffffffffffffffffffffffffffffff021916905560028201600061133791906134e5565b60038201600061134791906134e5565b60048201600061135791906134e5565b60058201600061136791906134e5565b60068201600061137791906134e5565b60078201600061138791906134e5565b60088201600090556009820160009055600a820160006113a79190613525565b600b820160006101000a81549060ff021916905550509055600d6000848152602001908152602001600020600080820160006101000a81549073ffffffffffffffffffffffffffffffffffffffff02191690556001820160006101000a81549073ffffffffffffffffffffffffffffffffffffffff021916905560028201600061143191906134e5565b60038201600061144191906134e5565b60048201600061145191906134e5565b60058201600061146191906134e5565b60068201600061147191906134e5565b60078201600061148191906134e5565b60088201600090556009820160009055600a820160006114a19190613525565b600b820160006101000a81549060ff021916905550507fa06f724666d0a2bde56689ccf4d2e4b5e3e76d852cf31aa25c2e214db33ffe5f836040516114e6919061397e565b60405180910390a1505050565b600b818154811061150357600080fd5b90600052602060002090600202016000915090508060000160009054906101000a900473ffffffffffffffffffffffffffffffffffffffff169080600101805461154c90614251565b80601f016020809104026020016040519081016040528092919081815260200182805461157890614251565b80156115c55780601f1061159a576101008083540402835291602001916115c5565b820191906000526020600020905b8154815290600101906020018083116115a857829003601f168201915b5050505050905082565b60055481565b6000600d6000838152602001908152602001600020600901549050919050565b600f6020528060005260406000206000915090505481565b6000805461161a90614251565b80601f016020809104026020016040519081016040528092919081815260200182805461164690614251565b80156116935780601f1061166857610100808354040283529160200191611693565b820191906000526020600020905b81548152906001019060200180831161167657829003601f168201915b505050505081565b60085481565b6060600a80548060200260200160405190810160405280929190818152602001828054801561172557602002820191906000526020600020905b8160009054906101000a900473ffffffffffffffffffffffffffffffffffffffff1673ffffffffffffffffffffffffffffffffffffffff16815260200190600101908083116116db575b5050505050905090565b60106020528060005260406000206000915090505481565b600c602052816000526040600020818154811061176357600080fd5b906000526020600020016000915091509054906101000a900473ffffffffffffffffffffffffffffffffffffffff1681565b61179e33612d74565b6117dd576040517f08c379a00000000000000000000000000000000000000000000000000000000081526004016117d49061458a565b60405180910390fd5b6000811180156117ef57506008548111155b61182e576040517f08c379a0000000000000000000000000000000000000000000000000000000008152600401611825906145f6565b60405180910390fd5b6000600d60008381526020019081526020016000209050600081600b0160006101000a81548160ff0219169083151502179055507fa06f724666d0a2bde56689ccf4d2e4b5e3e76d852cf31aa25c2e214db33ffe5f82604051611891919061397e565b60405180910390a15050565b6000600d600083815260200190815260200160002090508060000160009054906101000a900473ffffffffffffffffffffffffffffffffffffffff1673ffffffffffffffffffffffffffffffffffffffff163373ffffffffffffffffffffffffffffffffffffffff161415801561196457508060010160009054906101000a900473ffffffffffffffffffffffffffffffffffffffff1673ffffffffffffffffffffffffffffffffffffffff163373ffffffffffffffffffffffffffffffffffffffff1614155b6119a3576040517f08c379a000000000000000000000000000000000000000000000000000000000815260040161199a9061495c565b60405180910390fd5b348160090160008282546119b7919061497c565b9250508190555080600a01339080600181540180825580915050600190039060005260206000200160009091909190916101000a81548173ffffffffffffffffffffffffffffffffffffffff021916908373ffffffffffffffffffffffffffffffffffffffff16021790555034600e60003373ffffffffffffffffffffffffffffffffffffffff1673ffffffffffffffffffffffffffffffffffffffff1681526020019081526020016000206000828254611a72919061497c565b92505081905550600f60003373ffffffffffffffffffffffffffffffffffffffff1673ffffffffffffffffffffffffffffffffffffffff1681526020019081526020016000206000815480929190611ac9906141da565b91905055503460046000828254611ae0919061497c565b925050819055507f0e9450c60b5852553342ccda7c9307802902542d41f8d2a9d1d4e0d13e97355c3334604051611b189291906149b0565b60405180910390a15050565b6000600e60008373ffffffffffffffffffffffffffffffffffffffff1673ffffffffffffffffffffffffffffffffffffffff168152602001908152602001600020549050919050565b600360009054906101000a900473ffffffffffffffffffffffffffffffffffffffff1681565b600080600d600084815260200190815260200160002090508060090154915050919050565b60066020528060005260406000206000915090505481565b6011602052816000526040600020602052806000526040600020600091509150505481565b600080600090505b600b80549050811015611c9f578273ffffffffffffffffffffffffffffffffffffffff16600b8281548110611c3557611c34614722565b5b906000526020600020906002020160000160009054906101000a900473ffffffffffffffffffffffffffffffffffffffff1673ffffffffffffffffffffffffffffffffffffffff1603611c8c576001915050611ca5565b8080611c97906141da565b915050611bfd565b50600090505b919050565b6060600060085467ffffffffffffffff811115611cca57611cc96136af565b5b604051908082528060200260200182016040528015611d0357816020015b611cf0613546565b815260200190600190039081611ce85790505b5090506000600190505b600854811161224757600d6000828152602001908152602001600020604051806101800160405290816000820160009054906101000a900473ffffffffffffffffffffffffffffffffffffffff1673ffffffffffffffffffffffffffffffffffffffff1673ffffffffffffffffffffffffffffffffffffffff1681526020016001820160009054906101000a900473ffffffffffffffffffffffffffffffffffffffff1673ffffffffffffffffffffffffffffffffffffffff1673ffffffffffffffffffffffffffffffffffffffff168152602001600282018054611df190614251565b80601f0160208091040260200160405190810160405280929190818152602001828054611e1d90614251565b8015611e6a5780601f10611e3f57610100808354040283529160200191611e6a565b820191906000526020600020905b815481529060010190602001808311611e4d57829003601f168201915b50505050508152602001600382018054611e8390614251565b80601f0160208091040260200160405190810160405280929190818152602001828054611eaf90614251565b8015611efc5780601f10611ed157610100808354040283529160200191611efc565b820191906000526020600020905b815481529060010190602001808311611edf57829003601f168201915b50505050508152602001600482018054611f1590614251565b80601f0160208091040260200160405190810160405280929190818152602001828054611f4190614251565b8015611f8e5780601f10611f6357610100808354040283529160200191611f8e565b820191906000526020600020905b815481529060010190602001808311611f7157829003601f168201915b50505050508152602001600582018054611fa790614251565b80601f0160208091040260200160405190810160405280929190818152602001828054611fd390614251565b80156120205780601f10611ff557610100808354040283529160200191612020565b820191906000526020600020905b81548152906001019060200180831161200357829003601f168201915b5050505050815260200160068201805461203990614251565b80601f016020809104026020016040519081016040528092919081815260200182805461206590614251565b80156120b25780601f10612087576101008083540402835291602001916120b2565b820191906000526020600020905b81548152906001019060200180831161209557829003601f168201915b505050505081526020016007820180546120cb90614251565b80601f01602080910402602001604051908101604052809291908181526020018280546120f790614251565b80156121445780601f1061211957610100808354040283529160200191612144565b820191906000526020600020905b81548152906001019060200180831161212757829003601f168201915b505050505081526020016008820154815260200160098201548152602001600a82018054806020026020016040519081016040528092919081815260200182805480156121e657602002820191906000526020600020905b8160009054906101000a900473ffffffffffffffffffffffffffffffffffffffff1673ffffffffffffffffffffffffffffffffffffffff168152602001906001019080831161219c575b50505050508152602001600b820160009054906101000a900460ff161515151581525050826001836122189190614682565b8151811061222957612228614722565b5b6020026020010181905250808061223f906141da565b915050611d0d565b508091505090565b600760009054906101000a900460ff1681565b600060106000838152602001908152602001600020549050919050565b61228833612d74565b6122c7576040517f08c379a00000000000000000000000000000000000000000000000000000000081526004016122be9061458a565b60405180910390fd5b6000811180156122d957506008548111155b612318576040517f08c379a000000000000000000000000000000000000000000000000000000000815260040161230f906145f6565b60405180910390fd5b6000600d60008381526020019081526020016000209050600181600b0160006101000a81548160ff0219169083151502179055507fa06f724666d0a2bde56689ccf4d2e4b5e3e76d852cf31aa25c2e214db33ffe5f8260405161237b919061397e565b60405180910390a15050565b60606000600b8054905067ffffffffffffffff8111156123aa576123a96136af565b5b6040519080825280602002602001820160405280156123e357816020015b6123d06135d5565b8152602001906001900390816123c85790505b50905060005b600b8054905081101561257057600b818154811061240a57612409614722565b5b906000526020600020906002020160000160009054906101000a900473ffffffffffffffffffffffffffffffffffffffff1682828151811061244f5761244e614722565b5b60200260200101516000019073ffffffffffffffffffffffffffffffffffffffff16908173ffffffffffffffffffffffffffffffffffffffff1681525050600b81815481106124a1576124a0614722565b5b906000526020600020906002020160010180546124bd90614251565b80601f01602080910402602001604051908101604052809291908181526020018280546124e990614251565b80156125365780601f1061250b57610100808354040283529160200191612536565b820191906000526020600020905b81548152906001019060200180831161251957829003601f168201915b505050505082828151811061254e5761254d614722565b5b6020026020010151602001819052508080612568906141da565b9150506123e9565b508091505090565b600d6020528060005260406000206000915090508060000160009054906101000a900473ffffffffffffffffffffffffffffffffffffffff16908060010160009054906101000a900473ffffffffffffffffffffffffffffffffffffffff16908060020180546125e790614251565b80601f016020809104026020016040519081016040528092919081815260200182805461261390614251565b80156126605780601f1061263557610100808354040283529160200191612660565b820191906000526020600020905b81548152906001019060200180831161264357829003601f168201915b50505050509080600301805461267590614251565b80601f01602080910402602001604051908101604052809291908181526020018280546126a190614251565b80156126ee5780601f106126c3576101008083540402835291602001916126ee565b820191906000526020600020905b8154815290600101906020018083116126d157829003601f168201915b50505050509080600401805461270390614251565b80601f016020809104026020016040519081016040528092919081815260200182805461272f90614251565b801561277c5780601f106127515761010080835404028352916020019161277c565b820191906000526020600020905b81548152906001019060200180831161275f57829003601f168201915b50505050509080600501805461279190614251565b80601f01602080910402602001604051908101604052809291908181526020018280546127bd90614251565b801561280a5780601f106127df5761010080835404028352916020019161280a565b820191906000526020600020905b8154815290600101906020018083116127ed57829003601f168201915b50505050509080600601805461281f90614251565b80601f016020809104026020016040519081016040528092919081815260200182805461284b90614251565b80156128985780601f1061286d57610100808354040283529160200191612898565b820191906000526020600020905b81548152906001019060200180831161287b57829003601f168201915b5050505050908060070180546128ad90614251565b80601f01602080910402602001604051908101604052809291908181526020018280546128d990614251565b80156129265780601f106128fb57610100808354040283529160200191612926565b820191906000526020600020905b81548152906001019060200180831161290957829003601f168201915b50505050509080600801549080600901549080600b0160009054906101000a900460ff1690508b565b600160009054906101000a900473ffffffffffffffffffffffffffffffffffffffff1681565b600e6020528060005260406000206000915090505481565b6009818154811061299d57600080fd5b90600052602060002090600c02016000915090508060000160009054906101000a900473ffffffffffffffffffffffffffffffffffffffff16908060010160009054906101000a900473ffffffffffffffffffffffffffffffffffffffff1690806002018054612a0c90614251565b80601f0160208091040260200160405190810160405280929190818152602001828054612a3890614251565b8015612a855780601f10612a5a57610100808354040283529160200191612a85565b820191906000526020600020905b815481529060010190602001808311612a6857829003601f168201915b505050505090806003018054612a9a90614251565b80601f0160208091040260200160405190810160405280929190818152602001828054612ac690614251565b8015612b135780601f10612ae857610100808354040283529160200191612b13565b820191906000526020600020905b815481529060010190602001808311612af657829003601f168201915b505050505090806004018054612b2890614251565b80601f0160208091040260200160405190810160405280929190818152602001828054612b5490614251565b8015612ba15780601f10612b7657610100808354040283529160200191612ba1565b820191906000526020600020905b815481529060010190602001808311612b8457829003601f168201915b505050505090806005018054612bb690614251565b80601f0160208091040260200160405190810160405280929190818152602001828054612be290614251565b8015612c2f5780601f10612c0457610100808354040283529160200191612c2f565b820191906000526020600020905b815481529060010190602001808311612c1257829003601f168201915b505050505090806006018054612c4490614251565b80601f0160208091040260200160405190810160405280929190818152602001828054612c7090614251565b8015612cbd5780601f10612c9257610100808354040283529160200191612cbd565b820191906000526020600020905b815481529060010190602001808311612ca057829003601f168201915b505050505090806007018054612cd290614251565b80601f0160208091040260200160405190810160405280929190818152602001828054612cfe90614251565b8015612d4b5780601f10612d2057610100808354040283529160200191612d4b565b820191906000526020600020905b815481529060010190602001808311612d2e57829003601f168201915b50505050509080600801549080600901549080600b0160009054906101000a900460ff1690508b565b600080600090505b600a80549050811015612e17578273ffffffffffffffffffffffffffffffffffffffff16600a8281548110612db457612db3614722565b5b9060005260206000200160009054906101000a900473ffffffffffffffffffffffffffffffffffffffff1673ffffffffffffffffffffffffffffffffffffffff1603612e04576001915050612e1d565b8080612e0f906141da565b915050612d7c565b50600090505b919050565b6000600d600084815260200190815260200160002090508060000160009054906101000a900473ffffffffffffffffffffffffffffffffffffffff1673ffffffffffffffffffffffffffffffffffffffff163373ffffffffffffffffffffffffffffffffffffffff161480612ee657508060010160009054906101000a900473ffffffffffffffffffffffffffffffffffffffff1673ffffffffffffffffffffffffffffffffffffffff163373ffffffffffffffffffffffffffffffffffffffff16145b612f25576040517f08c379a0000000000000000000000000000000000000000000000000000000008152600401612f1c90614a25565b60405180910390fd5b6010600084815260200190815260200160002054821115612f7b576040517f08c379a0000000000000000000000000000000000000000000000000000000008152600401612f7290614ab7565b60405180910390fd5b81601060008581526020019081526020016000206000828254612f9e9190614682565b9250508190555060003073ffffffffffffffffffffffffffffffffffffffff1683604051612fcb90614b08565b60006040518083038185875af1925050503d8060008114613008576040519150601f19603f3d011682016040523d82523d6000602084013e61300d565b606091505b5050905080613051576040517f08c379a000000000000000000000000000000000000000000000000000000000815260040161304890614b69565b60405180910390fd5b50505050565b600081511161309b576040517f08c379a000000000000000000000000000000000000000000000000000000000815260040161309290614bd5565b60405180910390fd5b6130a433611bf5565b156130e4576040517f08c379a00000000000000000000000000000000000000000000000000000000081526004016130db90614c41565b60405180910390fd5b600060405180604001604052803373ffffffffffffffffffffffffffffffffffffffff168152602001838152509050600b81908060018154018082558091505060019003906000526020600020906002020160009091909190915060008201518160000160006101000a81548173ffffffffffffffffffffffffffffffffffffffff021916908373ffffffffffffffffffffffffffffffffffffffff160217905550602082015181600101908161319b919061442e565b5050505050565b600260009054906101000a900473ffffffffffffffffffffffffffffffffffffffff1681565b6000600d600084815260200190815260200160002090508060000160009054906101000a900473ffffffffffffffffffffffffffffffffffffffff1673ffffffffffffffffffffffffffffffffffffffff163373ffffffffffffffffffffffffffffffffffffffff16148061328c57508060010160009054906101000a900473ffffffffffffffffffffffffffffffffffffffff1673ffffffffffffffffffffffffffffffffffffffff163373ffffffffffffffffffffffffffffffffffffffff16145b6132cb576040517f08c379a00000000000000000000000000000000000000000000000000000000081526004016132c290614cad565b60405180910390fd5b8060090154821115613312576040517f08c379a000000000000000000000000000000000000000000000000000000000815260040161330990614d19565b60405180910390fd5b818160090160008282546133269190614682565b9250508190555081601060008581526020019081526020016000206000828254613350919061497c565b9250508190555060003373ffffffffffffffffffffffffffffffffffffffff168360405161337d90614b08565b60006040518083038185875af1925050503d80600081146133ba576040519150601f19603f3d011682016040523d82523d6000602084013e6133bf565b606091505b5050905080613403576040517f08c379a00000000000000000000000000000000000000000000000000000000081526004016133fa90614d85565b60405180910390fd5b50505050565b828054828255906000526020600020908101928215613482579160200282015b828111156134815782518260006101000a81548173ffffffffffffffffffffffffffffffffffffffff021916908373ffffffffffffffffffffffffffffffffffffffff16021790555091602001919060010190613429565b5b50905061348f9190613605565b5090565b8280548282559060005260206000209081019282156134d45760005260206000209182015b828111156134d35782548255916001019190600101906134b8565b5b5090506134e19190613605565b5090565b5080546134f190614251565b6000825580601f106135035750613522565b601f0160209004906000526020600020908101906135219190613605565b5b50565b50805460008255906000526020600020908101906135439190613605565b50565b604051806101800160405280600073ffffffffffffffffffffffffffffffffffffffff168152602001600073ffffffffffffffffffffffffffffffffffffffff1681526020016060815260200160608152602001606081526020016060815260200160608152602001606081526020016000815260200160008152602001606081526020016000151581525090565b6040518060400160405280600073ffffffffffffffffffffffffffffffffffffffff168152602001606081525090565b5b8082111561361e576000816000905550600101613606565b5090565b6000604051905090565b600080fd5b600080fd5b600073ffffffffffffffffffffffffffffffffffffffff82169050919050565b600061366182613636565b9050919050565b61367181613656565b811461367c57600080fd5b50565b60008135905061368e81613668565b92915050565b600080fd5b600080fd5b6000601f19601f8301169050919050565b7f4e487b7100000000000000000000000000000000000000000000000000000000600052604160045260246000fd5b6136e78261369e565b810181811067ffffffffffffffff82111715613706576137056136af565b5b80604052505050565b6000613719613622565b905061372582826136de565b919050565b600067ffffffffffffffff821115613745576137446136af565b5b61374e8261369e565b9050602081019050919050565b82818337600083830152505050565b600061377d6137788461372a565b61370f565b90508281526020810184848401111561379957613798613699565b5b6137a484828561375b565b509392505050565b600082601f8301126137c1576137c0613694565b5b81356137d184826020860161376a565b91505092915050565b600080600080600080600080610100898b0312156137fb576137fa61362c565b5b60006138098b828c0161367f565b985050602061381a8b828c0161367f565b975050604089013567ffffffffffffffff81111561383b5761383a613631565b5b6138478b828c016137ac565b965050606089013567ffffffffffffffff81111561386857613867613631565b5b6138748b828c016137ac565b955050608089013567ffffffffffffffff81111561389557613894613631565b5b6138a18b828c016137ac565b94505060a089013567ffffffffffffffff8111156138c2576138c1613631565b5b6138ce8b828c016137ac565b93505060c089013567ffffffffffffffff8111156138ef576138ee613631565b5b6138fb8b828c016137ac565b92505060e089013567ffffffffffffffff81111561391c5761391b613631565b5b6139288b828c016137ac565b9150509295985092959890939650565b60006020828403121561394e5761394d61362c565b5b600061395c8482850161367f565b91505092915050565b6000819050919050565b61397881613965565b82525050565b6000602082019050613993600083018461396f565b92915050565b6139a281613965565b81146139ad57600080fd5b50565b6000813590506139bf81613999565b92915050565b6000602082840312156139db576139da61362c565b5b60006139e9848285016139b0565b91505092915050565b6139fb81613656565b82525050565b600081519050919050565b600082825260208201905092915050565b60005b83811015613a3b578082015181840152602081019050613a20565b60008484015250505050565b6000613a5282613a01565b613a5c8185613a0c565b9350613a6c818560208601613a1d565b613a758161369e565b840191505092915050565b6000604082019050613a9560008301856139f2565b8181036020830152613aa78184613a47565b90509392505050565b60006020820190508181036000830152613aca8184613a47565b905092915050565b600081519050919050565b600082825260208201905092915050565b6000819050602082019050919050565b613b0781613656565b82525050565b6000613b198383613afe565b60208301905092915050565b6000602082019050919050565b6000613b3d82613ad2565b613b478185613add565b9350613b5283613aee565b8060005b83811015613b83578151613b6a8882613b0d565b9750613b7583613b25565b925050600181019050613b56565b5085935050505092915050565b60006020820190508181036000830152613baa8184613b32565b905092915050565b60008060408385031215613bc957613bc861362c565b5b6000613bd78582860161367f565b9250506020613be8858286016139b0565b9150509250929050565b6000602082019050613c0760008301846139f2565b92915050565b60008115159050919050565b613c2281613c0d565b82525050565b6000602082019050613c3d6000830184613c19565b92915050565b600081519050919050565b600082825260208201905092915050565b6000819050602082019050919050565b600082825260208201905092915050565b6000613c8b82613a01565b613c958185613c6f565b9350613ca5818560208601613a1d565b613cae8161369e565b840191505092915050565b613cc281613965565b82525050565b600082825260208201905092915050565b6000613ce482613ad2565b613cee8185613cc8565b9350613cf983613aee565b8060005b83811015613d2a578151613d118882613b0d565b9750613d1c83613b25565b925050600181019050613cfd565b5085935050505092915050565b613d4081613c0d565b82525050565b600061018083016000830151613d5f6000860182613afe565b506020830151613d726020860182613afe565b5060408301518482036040860152613d8a8282613c80565b91505060608301518482036060860152613da48282613c80565b91505060808301518482036080860152613dbe8282613c80565b91505060a083015184820360a0860152613dd88282613c80565b91505060c083015184820360c0860152613df28282613c80565b91505060e083015184820360e0860152613e0c8282613c80565b915050610100830151613e23610100860182613cb9565b50610120830151613e38610120860182613cb9565b50610140830151848203610140860152613e528282613cd9565b915050610160830151613e69610160860182613d37565b508091505092915050565b6000613e808383613d46565b905092915050565b6000602082019050919050565b6000613ea082613c43565b613eaa8185613c4e565b935083602082028501613ebc85613c5f565b8060005b85811015613ef85784840389528151613ed98582613e74565b9450613ee483613e88565b925060208a01995050600181019050613ec0565b50829750879550505050505092915050565b60006020820190508181036000830152613f248184613e95565b905092915050565b600081519050919050565b600082825260208201905092915050565b6000819050602082019050919050565b6000604083016000830151613f706000860182613afe565b5060208301518482036020860152613f888282613c80565b9150508091505092915050565b6000613fa18383613f58565b905092915050565b6000602082019050919050565b6000613fc182613f2c565b613fcb8185613f37565b935083602082028501613fdd85613f48565b8060005b858110156140195784840389528151613ffa8582613f95565b945061400583613fa9565b925060208a01995050600181019050613fe1565b50829750879550505050505092915050565b600060208201905081810360008301526140458184613fb6565b905092915050565b600061016082019050614063600083018e6139f2565b614070602083018d6139f2565b8181036040830152614082818c613a47565b90508181036060830152614096818b613a47565b905081810360808301526140aa818a613a47565b905081810360a08301526140be8189613a47565b905081810360c08301526140d28188613a47565b905081810360e08301526140e68187613a47565b90506140f661010083018661396f565b61410461012083018561396f565b614112610140830184613c19565b9c9b505050505050505050505050565b600080604083850312156141395761413861362c565b5b6000614147858286016139b0565b9250506020614158858286016139b0565b9150509250929050565b6000602082840312156141785761417761362c565b5b600082013567ffffffffffffffff81111561419657614195613631565b5b6141a2848285016137ac565b91505092915050565b7f4e487b7100000000000000000000000000000000000000000000000000000000600052601160045260246000fd5b60006141e582613965565b91507fffffffffffffffffffffffffffffffffffffffffffffffffffffffffffffffff8203614217576142166141ab565b5b600182019050919050565b7f4e487b7100000000000000000000000000000000000000000000000000000000600052602260045260246000fd5b6000600282049050600182168061426957607f821691505b60208210810361427c5761427b614222565b5b50919050565b60008190508160005260206000209050919050565b60006020601f8301049050919050565b600082821b905092915050565b6000600883026142e47fffffffffffffffffffffffffffffffffffffffffffffffffffffffffffffffff826142a7565b6142ee86836142a7565b95508019841693508086168417925050509392505050565b6000819050919050565b600061432b61432661432184613965565b614306565b613965565b9050919050565b6000819050919050565b61434583614310565b61435961435182614332565b8484546142b4565b825550505050565b600090565b61436e614361565b61437981848461433c565b505050565b5b8181101561439d57614392600082614366565b60018101905061437f565b5050565b601f8211156143e2576143b381614282565b6143bc84614297565b810160208510156143cb578190505b6143df6143d785614297565b83018261437e565b50505b505050565b600082821c905092915050565b6000614405600019846008026143e7565b1980831691505092915050565b600061441e83836143f4565b9150826002028217905092915050565b61443782613a01565b67ffffffffffffffff8111156144505761444f6136af565b5b61445a8254614251565b6144658282856143a1565b600060209050601f8311600181146144985760008415614486578287015190505b6144908582614412565b8655506144f8565b601f1984166144a686614282565b60005b828110156144ce578489015182556001820191506020850194506020810190506144a9565b868310156144eb57848901516144e7601f8916826143f4565b8355505b6001600288020188555050505b505050505050565b600060608201905061451560008301866139f2565b614522602083018561396f565b81810360408301526145348184613a47565b9050949350505050565b7f556e617574686f72697a65642061636365737300000000000000000000000000600082015250565b6000614574601383613a0c565b915061457f8261453e565b602082019050919050565b600060208201905081810360008301526145a381614567565b9050919050565b7f496e76616c69642044414f204944000000000000000000000000000000000000600082015250565b60006145e0600e83613a0c565b91506145eb826145aa565b602082019050919050565b6000602082019050818103600083015261460f816145d3565b9050919050565b7f43616e6e6f742072656d6f766520612076657269666965642044414f00000000600082015250565b600061464c601c83613a0c565b915061465782614616565b602082019050919050565b6000602082019050818103600083015261467b8161463f565b9050919050565b600061468d82613965565b915061469883613965565b92508282039050818111156146b0576146af6141ab565b5b92915050565b7f496e76616c696420696e64657800000000000000000000000000000000000000600082015250565b60006146ec600d83613a0c565b91506146f7826146b6565b602082019050919050565b6000602082019050818103600083015261471b816146df565b9050919050565b7f4e487b7100000000000000000000000000000000000000000000000000000000600052603260045260246000fd5b7f496e76616c69642044414f20494420696e20746f74616c44414f730000000000600082015250565b6000614787601b83613a0c565b915061479282614751565b602082019050919050565b600060208201905081810360008301526147b68161477a565b9050919050565b6000815490506147cc81614251565b9050919050565b8181036147e15750506148b9565b6147ea826147bd565b67ffffffffffffffff811115614803576148026136af565b5b61480d8254614251565b6148188282856143a1565b6000601f8311600181146148475760008415614835578287015490505b61483f8582614412565b8655506148b2565b601f19841661485587614282565b965061486086614282565b60005b8281101561488857848901548255600182019150600185019450602081019050614863565b868310156148a557848901546148a1601f8916826143f4565b8355505b6001600288020188555050505b5050505050505b565b7f4e487b7100000000000000000000000000000000000000000000000000000000600052603160045260246000fd5b7f4f6e6c7920616464726573736573207468617420686176656e2774206a6f696e60008201527f6564207468652044414f2063616e20696e766573742e00000000000000000000602082015250565b6000614946603683613a0c565b9150614951826148ea565b604082019050919050565b6000602082019050818103600083015261497581614939565b9050919050565b600061498782613965565b915061499283613965565b92508282019050808211156149aa576149a96141ab565b5b92915050565b60006040820190506149c560008301856139f2565b6149d2602083018461396f565b9392505050565b7f4f6e6c79206661726d6572732063616e2072657061792066756e647321000000600082015250565b6000614a0f601d83613a0c565b9150614a1a826149d9565b602082019050919050565b60006020820190508181036000830152614a3e81614a02565b9050919050565b7f416d6f756e7420746f207265706179206578636565647320746f74616c20616d60008201527f6f756e742077697468647261776e2e0000000000000000000000000000000000602082015250565b6000614aa1602f83613a0c565b9150614aac82614a45565b604082019050919050565b60006020820190508181036000830152614ad081614a94565b9050919050565b600081905092915050565b50565b6000614af2600083614ad7565b9150614afd82614ae2565b600082019050919050565b6000614b1382614ae5565b9150819050919050565b7f4661696c656420746f207472616e736665722066756e647320746f2044414f2e600082015250565b6000614b53602083613a0c565b9150614b5e82614b1d565b602082019050919050565b60006020820190508181036000830152614b8281614b46565b9050919050565b7f4e616d652063616e6e6f7420626520656d707479000000000000000000000000600082015250565b6000614bbf601483613a0c565b9150614bca82614b89565b602082019050919050565b60006020820190508181036000830152614bee81614bb2565b9050919050565b7f496e766573746f7220697320616c726561647920726567697374657265640000600082015250565b6000614c2b601e83613a0c565b9150614c3682614bf5565b602082019050919050565b60006020820190508181036000830152614c5a81614c1e565b9050919050565b7f4f6e6c79206661726d6572732063616e2077697468647261772066756e647321600082015250565b6000614c97602083613a0c565b9150614ca282614c61565b602082019050919050565b60006020820190508181036000830152614cc681614c8a565b9050919050565b7f496e73756666696369656e742066756e647320746f2077697468647261772100600082015250565b6000614d03601f83613a0c565b9150614d0e82614ccd565b602082019050919050565b60006020820190508181036000830152614d3281614cf6565b9050919050565b7f4661696c656420746f207472616e736665722066756e64732100000000000000600082015250565b6000614d6f601983613a0c565b9150614d7a82614d39565b602082019050919050565b60006020820190508181036000830152614d9e81614d62565b905091905056fea264697066735822122028088ff912799189dee6406106284fe4ef0ffe413dfb0c855de0057e56cd7dc664736f6c63430008130033",
  "linkReferences": {},
  "deployedLinkReferences": {}
}