{
  "_format": "hh-sol-artifact-1",
  "contractName": "FarmDAO",
  "sourceName": "contracts/FarmDao.sol",
  "abi": [
    {
      "inputs": [
        {
          "internalType": "string",
          "name": "_title",
          "type": "string"
        }
      ],
      "stateMutability": "nonpayable",
      "type": "constructor"
    },
    {
      "anonymous": false,
      "inputs": [
        {
          "indexed": false,
          "internalType": "address",
          "name": "farmerAddress1",
          "type": "address"
        },
        {
          "indexed": false,
          "internalType": "uint256",
          "name": "daoId",
          "type": "uint256"
        },
        {
          "indexed": false,
          "internalType": "string",
          "name": "daoName",
          "type": "string"
        }
      ],
      "name": "DaoCreated",
      "type": "event"
    },
    {
      "anonymous": false,
      "inputs": [
        {
          "indexed": false,
          "internalType": "uint256",
          "name": "daoId",
          "type": "uint256"
        }
      ],
      "name": "DaoVerified",
      "type": "event"
    },
    {
      "anonymous": false,
      "inputs": [
        {
          "indexed": false,
          "internalType": "address",
          "name": "investor",
          "type": "address"
        },
        {
          "indexed": false,
          "internalType": "uint256",
          "name": "amount",
          "type": "uint256"
        }
      ],
      "name": "InvestmentAdded",
      "type": "event"
    },
    {
      "inputs": [
        {
          "internalType": "uint256",
          "name": "daoId",
          "type": "uint256"
        }
      ],
      "name": "addInvestment",
      "outputs": [],
      "stateMutability": "payable",
      "type": "function"
    },
    {
      "inputs": [
        {
          "internalType": "address",
          "name": "_farmer1",
          "type": "address"
        },
        {
          "internalType": "address",
          "name": "_farmer2",
          "type": "address"
        },
        {
          "internalType": "string",
          "name": "_description",
          "type": "string"
        },
        {
          "internalType": "string",
          "name": "_name",
          "type": "string"
        },
        {
          "internalType": "string",
          "name": "_farmReports",
          "type": "string"
        },
        {
          "internalType": "string",
          "name": "_financialReports",
          "type": "string"
        }
      ],
      "name": "createDao",
      "outputs": [],
      "stateMutability": "nonpayable",
      "type": "function"
    },
    {
      "inputs": [],
      "name": "daoCreated",
      "outputs": [
        {
          "internalType": "bool",
          "name": "",
          "type": "bool"
        }
      ],
      "stateMutability": "view",
      "type": "function"
    },
    {
      "inputs": [
        {
          "internalType": "address",
          "name": "",
          "type": "address"
        },
        {
          "internalType": "uint256",
          "name": "",
          "type": "uint256"
        }
      ],
      "name": "daoFarmers",
      "outputs": [
        {
          "internalType": "address",
          "name": "",
          "type": "address"
        }
      ],
      "stateMutability": "view",
      "type": "function"
    },
    {
      "inputs": [],
      "name": "daoID",
      "outputs": [
        {
          "internalType": "uint256",
          "name": "",
          "type": "uint256"
        }
      ],
      "stateMutability": "view",
      "type": "function"
    },
    {
      "inputs": [
        {
          "internalType": "uint256",
          "name": "",
          "type": "uint256"
        }
      ],
      "name": "daos",
      "outputs": [
        {
          "internalType": "address",
          "name": "address1",
          "type": "address"
        },
        {
          "internalType": "address",
          "name": "address2",
          "type": "address"
        },
        {
          "internalType": "string",
          "name": "description",
          "type": "string"
        },
        {
          "internalType": "string",
          "name": "farmReports",
          "type": "string"
        },
        {
          "internalType": "string",
          "name": "financialReports",
          "type": "string"
        },
        {
          "internalType": "string",
          "name": "name",
          "type": "string"
        },
        {
          "internalType": "uint256",
          "name": "id",
          "type": "uint256"
        },
        {
          "internalType": "uint256",
          "name": "amountInvested",
          "type": "uint256"
        },
        {
          "internalType": "bool",
          "name": "verified",
          "type": "bool"
        }
      ],
      "stateMutability": "view",
      "type": "function"
    },
    {
      "inputs": [],
      "name": "farmer1",
      "outputs": [
        {
          "internalType": "address",
          "name": "",
          "type": "address"
        }
      ],
      "stateMutability": "view",
      "type": "function"
    },
    {
      "inputs": [],
      "name": "farmer2",
      "outputs": [
        {
          "internalType": "address",
          "name": "",
          "type": "address"
        }
      ],
      "stateMutability": "view",
      "type": "function"
    },
    {
      "inputs": [],
      "name": "getAllDaos",
      "outputs": [
        {
          "components": [
            {
              "internalType": "address",
              "name": "address1",
              "type": "address"
            },
            {
              "internalType": "address",
              "name": "address2",
              "type": "address"
            },
            {
              "internalType": "string",
              "name": "description",
              "type": "string"
            },
            {
              "internalType": "string",
              "name": "farmReports",
              "type": "string"
            },
            {
              "internalType": "string",
              "name": "financialReports",
              "type": "string"
            },
            {
              "internalType": "string",
              "name": "name",
              "type": "string"
            },
            {
              "internalType": "uint256",
              "name": "id",
              "type": "uint256"
            },
            {
              "internalType": "uint256",
              "name": "amountInvested",
              "type": "uint256"
            },
            {
              "internalType": "address[]",
              "name": "investors",
              "type": "address[]"
            },
            {
              "internalType": "bool",
              "name": "verified",
              "type": "bool"
            }
          ],
          "internalType": "struct FarmDAO.Dao[]",
          "name": "",
          "type": "tuple[]"
        }
      ],
      "stateMutability": "view",
      "type": "function"
    },
    {
      "inputs": [],
      "name": "getAllInvestorInfo",
      "outputs": [
        {
          "components": [
            {
              "internalType": "address",
              "name": "investorAddress",
              "type": "address"
            },
            {
              "internalType": "string",
              "name": "name",
              "type": "string"
            }
          ],
          "internalType": "struct FarmDAO.Investor[]",
          "name": "",
          "type": "tuple[]"
        }
      ],
      "stateMutability": "view",
      "type": "function"
    },
    {
      "inputs": [
        {
          "internalType": "uint256",
          "name": "daoId",
          "type": "uint256"
        }
      ],
      "name": "getCurrentAmountAvailable",
      "outputs": [
        {
          "internalType": "uint256",
          "name": "",
          "type": "uint256"
        }
      ],
      "stateMutability": "view",
      "type": "function"
    },
    {
      "inputs": [
        {
          "internalType": "uint256",
          "name": "daoId",
          "type": "uint256"
        }
      ],
      "name": "getTotalAmountWithdrawn",
      "outputs": [
        {
          "internalType": "uint256",
          "name": "",
          "type": "uint256"
        }
      ],
      "stateMutability": "view",
      "type": "function"
    },
    {
      "inputs": [
        {
          "internalType": "uint256",
          "name": "daoId",
          "type": "uint256"
        }
      ],
      "name": "getTotalInvestment",
      "outputs": [
        {
          "internalType": "uint256",
          "name": "",
          "type": "uint256"
        }
      ],
      "stateMutability": "view",
      "type": "function"
    },
    {
      "inputs": [
        {
          "internalType": "address",
          "name": "investor",
          "type": "address"
        }
      ],
      "name": "getTotalInvestmentByInvestor",
      "outputs": [
        {
          "internalType": "uint256",
          "name": "",
          "type": "uint256"
        }
      ],
      "stateMutability": "view",
      "type": "function"
    },
    {
      "inputs": [
        {
          "internalType": "address",
          "name": "investor",
          "type": "address"
        }
      ],
      "name": "getTotalNumberOfDaosByInvestor",
      "outputs": [
        {
          "internalType": "uint256",
          "name": "",
          "type": "uint256"
        }
      ],
      "stateMutability": "view",
      "type": "function"
    },
    {
      "inputs": [],
      "name": "getVerifiedAddresses",
      "outputs": [
        {
          "internalType": "address[]",
          "name": "",
          "type": "address[]"
        }
      ],
      "stateMutability": "view",
      "type": "function"
    },
    {
      "inputs": [
        {
          "internalType": "address",
          "name": "",
          "type": "address"
        }
      ],
      "name": "investments",
      "outputs": [
        {
          "internalType": "uint256",
          "name": "",
          "type": "uint256"
        }
      ],
      "stateMutability": "view",
      "type": "function"
    },
    {
      "inputs": [
        {
          "internalType": "address",
          "name": "_address",
          "type": "address"
        }
      ],
      "name": "isAddressVerified",
      "outputs": [
        {
          "internalType": "bool",
          "name": "",
          "type": "bool"
        }
      ],
      "stateMutability": "view",
      "type": "function"
    },
    {
      "inputs": [
        {
          "internalType": "address",
          "name": "investor",
          "type": "address"
        }
      ],
      "name": "isInvestorRegistered",
      "outputs": [
        {
          "internalType": "bool",
          "name": "",
          "type": "bool"
        }
      ],
      "stateMutability": "view",
      "type": "function"
    },
    {
      "inputs": [],
      "name": "minimumInvestment",
      "outputs": [
        {
          "internalType": "uint256",
          "name": "",
          "type": "uint256"
        }
      ],
      "stateMutability": "view",
      "type": "function"
    },
    {
      "inputs": [],
      "name": "owner",
      "outputs": [
        {
          "internalType": "address",
          "name": "",
          "type": "address"
        }
      ],
      "stateMutability": "view",
      "type": "function"
    },
    {
      "inputs": [
        {
          "internalType": "address",
          "name": "",
          "type": "address"
        },
        {
          "internalType": "uint256",
          "name": "",
          "type": "uint256"
        }
      ],
      "name": "partialAmountPaid",
      "outputs": [
        {
          "internalType": "uint256",
          "name": "",
          "type": "uint256"
        }
      ],
      "stateMutability": "view",
      "type": "function"
    },
    {
      "inputs": [
        {
          "internalType": "string",
          "name": "name",
          "type": "string"
        }
      ],
      "name": "registerInvestor",
      "outputs": [],
      "stateMutability": "nonpayable",
      "type": "function"
    },
    {
      "inputs": [
        {
          "internalType": "uint256",
          "name": "",
          "type": "uint256"
        }
      ],
      "name": "registeredInvestors",
      "outputs": [
        {
          "internalType": "address",
          "name": "investorAddress",
          "type": "address"
        },
        {
          "internalType": "string",
          "name": "name",
          "type": "string"
        }
      ],
      "stateMutability": "view",
      "type": "function"
    },
    {
      "inputs": [
        {
          "internalType": "uint256",
          "name": "daoId",
          "type": "uint256"
        }
      ],
      "name": "removeDao",
      "outputs": [],
      "stateMutability": "nonpayable",
      "type": "function"
    },
    {
      "inputs": [
        {
          "internalType": "uint256",
          "name": "daoId",
          "type": "uint256"
        },
        {
          "internalType": "uint256",
          "name": "amountToRepay",
          "type": "uint256"
        }
      ],
      "name": "repayFunds",
      "outputs": [],
      "stateMutability": "nonpayable",
      "type": "function"
    },
    {
      "inputs": [],
      "name": "title",
      "outputs": [
        {
          "internalType": "string",
          "name": "",
          "type": "string"
        }
      ],
      "stateMutability": "view",
      "type": "function"
    },
    {
      "inputs": [
        {
          "internalType": "uint256",
          "name": "",
          "type": "uint256"
        }
      ],
      "name": "totalAmountWithdrawn",
      "outputs": [
        {
          "internalType": "uint256",
          "name": "",
          "type": "uint256"
        }
      ],
      "stateMutability": "view",
      "type": "function"
    },
    {
      "inputs": [
        {
          "internalType": "uint256",
          "name": "",
          "type": "uint256"
        }
      ],
      "name": "totalDAOs",
      "outputs": [
        {
          "internalType": "address",
          "name": "address1",
          "type": "address"
        },
        {
          "internalType": "address",
          "name": "address2",
          "type": "address"
        },
        {
          "internalType": "string",
          "name": "description",
          "type": "string"
        },
        {
          "internalType": "string",
          "name": "farmReports",
          "type": "string"
        },
        {
          "internalType": "string",
          "name": "financialReports",
          "type": "string"
        },
        {
          "internalType": "string",
          "name": "name",
          "type": "string"
        },
        {
          "internalType": "uint256",
          "name": "id",
          "type": "uint256"
        },
        {
          "internalType": "uint256",
          "name": "amountInvested",
          "type": "uint256"
        },
        {
          "internalType": "bool",
          "name": "verified",
          "type": "bool"
        }
      ],
      "stateMutability": "view",
      "type": "function"
    },
    {
      "inputs": [],
      "name": "totalInvestment",
      "outputs": [
        {
          "internalType": "uint256",
          "name": "",
          "type": "uint256"
        }
      ],
      "stateMutability": "view",
      "type": "function"
    },
    {
      "inputs": [
        {
          "internalType": "address",
          "name": "",
          "type": "address"
        }
      ],
      "name": "totalInvestmentByEachInvestor",
      "outputs": [
        {
          "internalType": "uint256",
          "name": "",
          "type": "uint256"
        }
      ],
      "stateMutability": "view",
      "type": "function"
    },
    {
      "inputs": [
        {
          "internalType": "address",
          "name": "",
          "type": "address"
        }
      ],
      "name": "totalNumberOfDaosByInvestor",
      "outputs": [
        {
          "internalType": "uint256",
          "name": "",
          "type": "uint256"
        }
      ],
      "stateMutability": "view",
      "type": "function"
    },
    {
      "inputs": [
        {
          "internalType": "uint256",
          "name": "daoId",
          "type": "uint256"
        }
      ],
      "name": "unverifyDao",
      "outputs": [],
      "stateMutability": "nonpayable",
      "type": "function"
    },
    {
      "inputs": [
        {
          "internalType": "uint256",
          "name": "daoId",
          "type": "uint256"
        }
      ],
      "name": "verifyDao",
      "outputs": [],
      "stateMutability": "nonpayable",
      "type": "function"
    },
    {
      "inputs": [
        {
          "internalType": "uint256",
          "name": "daoId",
          "type": "uint256"
        },
        {
          "internalType": "uint256",
          "name": "amountToWithdraw",
          "type": "uint256"
        }
      ],
      "name": "withDrawDFunds",
      "outputs": [],
      "stateMutability": "nonpayable",
      "type": "function"
    }
  ],
  "bytecode": "0x60806040523480156200001157600080fd5b5060405162004faf38038062004faf833981810160405281019062000037919062000348565b8060009081620000489190620005e4565b50600a7313ef924eb7408e90278b86b659960afb00ddae619080600181540180825580915050600190039060005260206000200160009091909190916101000a81548173ffffffffffffffffffffffffffffffffffffffff021916908373ffffffffffffffffffffffffffffffffffffffff160217905550600a7323792579e2979a98d12a33a85e35914079304a569080600181540180825580915050600190039060005260206000200160009091909190916101000a81548173ffffffffffffffffffffffffffffffffffffffff021916908373ffffffffffffffffffffffffffffffffffffffff160217905550600a73dc4f6ea5856eda459286e8d0ef42e389d07137ff9080600181540180825580915050600190039060005260206000200160009091909190916101000a81548173ffffffffffffffffffffffffffffffffffffffff021916908373ffffffffffffffffffffffffffffffffffffffff16021790555050620006cb565b6000604051905090565b600080fd5b600080fd5b600080fd5b600080fd5b6000601f19601f8301169050919050565b7f4e487b7100000000000000000000000000000000000000000000000000000000600052604160045260246000fd5b6200021e82620001d3565b810181811067ffffffffffffffff8211171562000240576200023f620001e4565b5b80604052505050565b600062000255620001b5565b905062000263828262000213565b919050565b600067ffffffffffffffff821115620002865762000285620001e4565b5b6200029182620001d3565b9050602081019050919050565b60005b83811015620002be578082015181840152602081019050620002a1565b60008484015250505050565b6000620002e1620002db8462000268565b62000249565b9050828152602081018484840111156200030057620002ff620001ce565b5b6200030d8482856200029e565b509392505050565b600082601f8301126200032d576200032c620001c9565b5b81516200033f848260208601620002ca565b91505092915050565b600060208284031215620003615762000360620001bf565b5b600082015167ffffffffffffffff811115620003825762000381620001c4565b5b620003908482850162000315565b91505092915050565b600081519050919050565b7f4e487b7100000000000000000000000000000000000000000000000000000000600052602260045260246000fd5b60006002820490506001821680620003ec57607f821691505b602082108103620004025762000401620003a4565b5b50919050565b60008190508160005260206000209050919050565b60006020601f8301049050919050565b600082821b905092915050565b6000600883026200046c7fffffffffffffffffffffffffffffffffffffffffffffffffffffffffffffffff826200042d565b6200047886836200042d565b95508019841693508086168417925050509392505050565b6000819050919050565b6000819050919050565b6000620004c5620004bf620004b98462000490565b6200049a565b62000490565b9050919050565b6000819050919050565b620004e183620004a4565b620004f9620004f082620004cc565b8484546200043a565b825550505050565b600090565b6200051062000501565b6200051d818484620004d6565b505050565b5b8181101562000545576200053960008262000506565b60018101905062000523565b5050565b601f82111562000594576200055e8162000408565b62000569846200041d565b8101602085101562000579578190505b6200059162000588856200041d565b83018262000522565b50505b505050565b600082821c905092915050565b6000620005b96000198460080262000599565b1980831691505092915050565b6000620005d48383620005a6565b9150826002028217905092915050565b620005ef8262000399565b67ffffffffffffffff8111156200060b576200060a620001e4565b5b620006178254620003d3565b6200062482828562000549565b600060209050601f8311600181146200065c576000841562000647578287015190505b620006538582620005c6565b865550620006c3565b601f1984166200066c8662000408565b60005b8281101562000696578489015182556001820191506020850194506020810190506200066f565b86831015620006b65784890151620006b2601f891682620005a6565b8355505b6001600288020188555050505b505050505050565b6148d480620006db6000396000f3fe6080604052600436106102045760003560e01c806393cead5e11610118578063ccbbd260116100a0578063da9dd8bf1161006f578063da9dd8bf1461081b578063eb352c8114610858578063ec3246a214610881578063f3f0cd91146108aa578063fe714f64146108d557610204565b8063ccbbd26014610729578063ce99886d1461076e578063d19fa48e14610799578063d840b4df146107d657610204565b8063aa5b6d4c116100e7578063aa5b6d4c14610642578063b3afc4391461066d578063c89e6eca14610698578063c9525567146106d5578063ca3f04b0146106fe57610204565b806393cead5e1461054e57806396b988621461058b5780639abad058146105c85780639c5f83851461060557610204565b80634c54114c1161019b5780635e60ab901161016a5780635e60ab9014610478578063610c8ced146104a1578063808237cc146104bd5780638da5cb5b146104fa57806393b16be11461052557610204565b80634c54114c146103a857806352ff15cd146103d357806355460972146103fe578063574eb0331461043b57610204565b80632b925b25116101d75780632b925b25146102d857806334422a47146103035780633adfa93b146103405780634a79d50c1461037d57610204565b80630796ed391461020957806310ea13df146102465780631cb70fb9146102715780631da7180d1461029a575b600080fd5b34801561021557600080fd5b50610230600480360381019061022b9190613252565b6108fe565b60405161023d9190613298565b60405180910390f35b34801561025257600080fd5b5061025b610947565b6040516102689190613298565b60405180910390f35b34801561027d57600080fd5b50610298600480360381019061029391906132df565b61094d565b005b3480156102a657600080fd5b506102c160048036038101906102bc91906132df565b610ee1565b6040516102cf9291906133ab565b60405180910390f35b3480156102e457600080fd5b506102ed610fbd565b6040516102fa9190613298565b60405180910390f35b34801561030f57600080fd5b5061032a600480360381019061032591906132df565b610fc3565b6040516103379190613298565b60405180910390f35b34801561034c57600080fd5b5061036760048036038101906103629190613252565b610fe3565b6040516103749190613298565b60405180910390f35b34801561038957600080fd5b50610392610ffb565b60405161039f91906133db565b60405180910390f35b3480156103b457600080fd5b506103bd611089565b6040516103ca9190613298565b60405180910390f35b3480156103df57600080fd5b506103e861108f565b6040516103f591906134bb565b60405180910390f35b34801561040a57600080fd5b50610425600480360381019061042091906132df565b61111d565b6040516104329190613298565b60405180910390f35b34801561044757600080fd5b50610462600480360381019061045d91906134dd565b611135565b60405161046f919061351d565b60405180910390f35b34801561048457600080fd5b5061049f600480360381019061049a91906132df565b611183565b005b6104bb60048036038101906104b691906132df565b61128b565b005b3480156104c957600080fd5b506104e460048036038101906104df9190613252565b611512565b6040516104f19190613298565b60405180910390f35b34801561050657600080fd5b5061050f61155b565b60405161051c919061351d565b60405180910390f35b34801561053157600080fd5b5061054c6004803603810190610547919061366d565b611581565b005b34801561055a57600080fd5b50610575600480360381019061057091906132df565b611abb565b6040516105829190613298565b60405180910390f35b34801561059757600080fd5b506105b260048036038101906105ad9190613252565b611ae0565b6040516105bf9190613298565b60405180910390f35b3480156105d457600080fd5b506105ef60048036038101906105ea91906134dd565b611af8565b6040516105fc9190613298565b60405180910390f35b34801561061157600080fd5b5061062c60048036038101906106279190613252565b611b1d565b6040516106399190613785565b60405180910390f35b34801561064e57600080fd5b50610657611bd2565b6040516106649190613a2f565b60405180910390f35b34801561067957600080fd5b50610682612053565b60405161068f9190613785565b60405180910390f35b3480156106a457600080fd5b506106bf60048036038101906106ba91906132df565b612066565b6040516106cc9190613298565b60405180910390f35b3480156106e157600080fd5b506106fc60048036038101906106f791906132df565b612083565b005b34801561070a57600080fd5b5061071361218b565b6040516107209190613b50565b60405180910390f35b34801561073557600080fd5b50610750600480360381019061074b91906132df565b61237c565b60405161076599989796959493929190613b72565b60405180910390f35b34801561077a57600080fd5b50610783612637565b604051610790919061351d565b60405180910390f35b3480156107a557600080fd5b506107c060048036038101906107bb9190613252565b61265d565b6040516107cd9190613298565b60405180910390f35b3480156107e257600080fd5b506107fd60048036038101906107f891906132df565b612675565b60405161081299989796959493929190613b72565b60405180910390f35b34801561082757600080fd5b50610842600480360381019061083d9190613252565b612940565b60405161084f9190613785565b60405180910390f35b34801561086457600080fd5b5061087f600480360381019061087a9190613c1b565b6129ee565b005b34801561088d57600080fd5b506108a860048036038101906108a39190613c5b565b612c23565b005b3480156108b657600080fd5b506108bf612d6e565b6040516108cc919061351d565b60405180910390f35b3480156108e157600080fd5b506108fc60048036038101906108f79190613c1b565b612d94565b005b6000600f60008373ffffffffffffffffffffffffffffffffffffffff1673ffffffffffffffffffffffffffffffffffffffff168152602001908152602001600020549050919050565b60045481565b61095633612940565b610995576040517f08c379a000000000000000000000000000000000000000000000000000000000815260040161098c90613cf0565b60405180910390fd5b6000811180156109a757506008548111155b6109e6576040517f08c379a00000000000000000000000000000000000000000000000000000000081526004016109dd90613d5c565b60405180910390fd5b6000600d600083815260200190815260200160002090508060090160009054906101000a900460ff1615610a4f576040517f08c379a0000000000000000000000000000000000000000000000000000000008152600401610a4690613dc8565b60405180910390fd5b6000600183610a5e9190613e17565b90506009805490508110610aa7576040517f08c379a0000000000000000000000000000000000000000000000000000000008152600401610a9e90613e97565b60405180910390fd5b8260098281548110610abc57610abb613eb7565b5b90600052602060002090600a02016006015414610b0e576040517f08c379a0000000000000000000000000000000000000000000000000000000008152600401610b0590613f32565b60405180910390fd5b60096001600980549050610b229190613e17565b81548110610b3357610b32613eb7565b5b90600052602060002090600a020160098281548110610b5557610b54613eb7565b5b90600052602060002090600a02016000820160009054906101000a900473ffffffffffffffffffffffffffffffffffffffff168160000160006101000a81548173ffffffffffffffffffffffffffffffffffffffff021916908373ffffffffffffffffffffffffffffffffffffffff1602179055506001820160009054906101000a900473ffffffffffffffffffffffffffffffffffffffff168160010160006101000a81548173ffffffffffffffffffffffffffffffffffffffff021916908373ffffffffffffffffffffffffffffffffffffffff16021790555060028201816002019081610c459190614174565b5060038201816003019081610c5a9190614174565b5060048201816004019081610c6f9190614174565b5060058201816005019081610c849190614174565b5060068201548160060155600782015481600701556008820181600801908054610caf929190612fd5565b506009820160009054906101000a900460ff168160090160006101000a81548160ff0219169083151502179055509050506009805480610cf257610cf161425c565b5b60019003818190600052602060002090600a0201600080820160006101000a81549073ffffffffffffffffffffffffffffffffffffffff02191690556001820160006101000a81549073ffffffffffffffffffffffffffffffffffffffff0219169055600282016000610d659190613027565b600382016000610d759190613027565b600482016000610d859190613027565b600582016000610d959190613027565b60068201600090556007820160009055600882016000610db59190613067565b6009820160006101000a81549060ff021916905550509055600d6000848152602001908152602001600020600080820160006101000a81549073ffffffffffffffffffffffffffffffffffffffff02191690556001820160006101000a81549073ffffffffffffffffffffffffffffffffffffffff0219169055600282016000610e3f9190613027565b600382016000610e4f9190613027565b600482016000610e5f9190613027565b600582016000610e6f9190613027565b60068201600090556007820160009055600882016000610e8f9190613067565b6009820160006101000a81549060ff021916905550507fa06f724666d0a2bde56689ccf4d2e4b5e3e76d852cf31aa25c2e214db33ffe5f83604051610ed49190613298565b60405180910390a1505050565b600b8181548110610ef157600080fd5b90600052602060002090600202016000915090508060000160009054906101000a900473ffffffffffffffffffffffffffffffffffffffff1690806001018054610f3a90613f81565b80601f0160208091040260200160405190810160405280929190818152602001828054610f6690613f81565b8015610fb35780601f10610f8857610100808354040283529160200191610fb3565b820191906000526020600020905b815481529060010190602001808311610f9657829003601f168201915b5050505050905082565b60055481565b6000600d6000838152602001908152602001600020600701549050919050565b600f6020528060005260406000206000915090505481565b6000805461100890613f81565b80601f016020809104026020016040519081016040528092919081815260200182805461103490613f81565b80156110815780601f1061105657610100808354040283529160200191611081565b820191906000526020600020905b81548152906001019060200180831161106457829003601f168201915b505050505081565b60085481565b6060600a80548060200260200160405190810160405280929190818152602001828054801561111357602002820191906000526020600020905b8160009054906101000a900473ffffffffffffffffffffffffffffffffffffffff1673ffffffffffffffffffffffffffffffffffffffff16815260200190600101908083116110c9575b5050505050905090565b60106020528060005260406000206000915090505481565b600c602052816000526040600020818154811061115157600080fd5b906000526020600020016000915091509054906101000a900473ffffffffffffffffffffffffffffffffffffffff1681565b61118c33612940565b6111cb576040517f08c379a00000000000000000000000000000000000000000000000000000000081526004016111c290613cf0565b60405180910390fd5b6000811180156111dd57506008548111155b61121c576040517f08c379a000000000000000000000000000000000000000000000000000000000815260040161121390613d5c565b60405180910390fd5b6000600d6000838152602001908152602001600020905060008160090160006101000a81548160ff0219169083151502179055507fa06f724666d0a2bde56689ccf4d2e4b5e3e76d852cf31aa25c2e214db33ffe5f8260405161127f9190613298565b60405180910390a15050565b6000600d600083815260200190815260200160002090508060000160009054906101000a900473ffffffffffffffffffffffffffffffffffffffff1673ffffffffffffffffffffffffffffffffffffffff163373ffffffffffffffffffffffffffffffffffffffff161415801561135257508060010160009054906101000a900473ffffffffffffffffffffffffffffffffffffffff1673ffffffffffffffffffffffffffffffffffffffff163373ffffffffffffffffffffffffffffffffffffffff1614155b611391576040517f08c379a0000000000000000000000000000000000000000000000000000000008152600401611388906142fd565b60405180910390fd5b348160070160008282546113a5919061431d565b9250508190555080600801339080600181540180825580915050600190039060005260206000200160009091909190916101000a81548173ffffffffffffffffffffffffffffffffffffffff021916908373ffffffffffffffffffffffffffffffffffffffff16021790555034600e60003373ffffffffffffffffffffffffffffffffffffffff1673ffffffffffffffffffffffffffffffffffffffff1681526020019081526020016000206000828254611460919061431d565b92505081905550600f60003373ffffffffffffffffffffffffffffffffffffffff1673ffffffffffffffffffffffffffffffffffffffff16815260200190815260200160002060008154809291906114b790614351565b919050555034600460008282546114ce919061431d565b925050819055507f0e9450c60b5852553342ccda7c9307802902542d41f8d2a9d1d4e0d13e97355c3334604051611506929190614399565b60405180910390a15050565b6000600e60008373ffffffffffffffffffffffffffffffffffffffff1673ffffffffffffffffffffffffffffffffffffffff168152602001908152602001600020549050919050565b600360009054906101000a900473ffffffffffffffffffffffffffffffffffffffff1681565b6008600081548092919061159490614351565b9190505550600080600854905060006040518061014001604052808a73ffffffffffffffffffffffffffffffffffffffff1681526020018973ffffffffffffffffffffffffffffffffffffffff168152602001888152602001868152602001858152602001878152602001838152602001848152602001600067ffffffffffffffff81111561162657611625613542565b5b6040519080825280602002602001820160405280156116545781602001602082028036833780820191505090505b50815260200160001515815250905080600d600084815260200190815260200160002060008201518160000160006101000a81548173ffffffffffffffffffffffffffffffffffffffff021916908373ffffffffffffffffffffffffffffffffffffffff16021790555060208201518160010160006101000a81548173ffffffffffffffffffffffffffffffffffffffff021916908373ffffffffffffffffffffffffffffffffffffffff160217905550604082015181600201908161171a91906143c2565b50606082015181600301908161173091906143c2565b50608082015181600401908161174691906143c2565b5060a082015181600501908161175c91906143c2565b5060c0820151816006015560e0820151816007015561010082015181600801908051906020019061178e929190613088565b506101208201518160090160006101000a81548160ff02191690831515021790555090505060098190806001815401808255809150506001900390600052602060002090600a020160009091909190915060008201518160000160006101000a81548173ffffffffffffffffffffffffffffffffffffffff021916908373ffffffffffffffffffffffffffffffffffffffff16021790555060208201518160010160006101000a81548173ffffffffffffffffffffffffffffffffffffffff021916908373ffffffffffffffffffffffffffffffffffffffff160217905550604082015181600201908161188291906143c2565b50606082015181600301908161189891906143c2565b5060808201518160040190816118ae91906143c2565b5060a08201518160050190816118c491906143c2565b5060c0820151816006015560e082015181600701556101008201518160080190805190602001906118f6929190613088565b506101208201518160090160006101000a81548160ff0219169083151502179055505050600c60003073ffffffffffffffffffffffffffffffffffffffff1673ffffffffffffffffffffffffffffffffffffffff168152602001908152602001600020899080600181540180825580915050600190039060005260206000200160009091909190916101000a81548173ffffffffffffffffffffffffffffffffffffffff021916908373ffffffffffffffffffffffffffffffffffffffff160217905550600c60003073ffffffffffffffffffffffffffffffffffffffff1673ffffffffffffffffffffffffffffffffffffffff168152602001908152602001600020889080600181540180825580915050600190039060005260206000200160009091909190916101000a81548173ffffffffffffffffffffffffffffffffffffffff021916908373ffffffffffffffffffffffffffffffffffffffff1602179055506001600760006101000a81548160ff0219169083151502179055507f0acd9bdc7b641798c00bfa4f97f5c6c7dee74f9d8edde3bceb1294505b1db658898388604051611aa893929190614494565b60405180910390a1505050505050505050565b600080600d600084815260200190815260200160002090508060070154915050919050565b60066020528060005260406000206000915090505481565b6011602052816000526040600020602052806000526040600020600091509150505481565b600080600090505b600b80549050811015611bc7578273ffffffffffffffffffffffffffffffffffffffff16600b8281548110611b5d57611b5c613eb7565b5b906000526020600020906002020160000160009054906101000a900473ffffffffffffffffffffffffffffffffffffffff1673ffffffffffffffffffffffffffffffffffffffff1603611bb4576001915050611bcd565b8080611bbf90614351565b915050611b25565b50600090505b919050565b6060600060085467ffffffffffffffff811115611bf257611bf1613542565b5b604051908082528060200260200182016040528015611c2b57816020015b611c18613112565b815260200190600190039081611c105790505b5090506000600190505b600854811161204b57600d6000828152602001908152602001600020604051806101400160405290816000820160009054906101000a900473ffffffffffffffffffffffffffffffffffffffff1673ffffffffffffffffffffffffffffffffffffffff1673ffffffffffffffffffffffffffffffffffffffff1681526020016001820160009054906101000a900473ffffffffffffffffffffffffffffffffffffffff1673ffffffffffffffffffffffffffffffffffffffff1673ffffffffffffffffffffffffffffffffffffffff168152602001600282018054611d1990613f81565b80601f0160208091040260200160405190810160405280929190818152602001828054611d4590613f81565b8015611d925780601f10611d6757610100808354040283529160200191611d92565b820191906000526020600020905b815481529060010190602001808311611d7557829003601f168201915b50505050508152602001600382018054611dab90613f81565b80601f0160208091040260200160405190810160405280929190818152602001828054611dd790613f81565b8015611e245780601f10611df957610100808354040283529160200191611e24565b820191906000526020600020905b815481529060010190602001808311611e0757829003601f168201915b50505050508152602001600482018054611e3d90613f81565b80601f0160208091040260200160405190810160405280929190818152602001828054611e6990613f81565b8015611eb65780601f10611e8b57610100808354040283529160200191611eb6565b820191906000526020600020905b815481529060010190602001808311611e9957829003601f168201915b50505050508152602001600582018054611ecf90613f81565b80601f0160208091040260200160405190810160405280929190818152602001828054611efb90613f81565b8015611f485780601f10611f1d57610100808354040283529160200191611f48565b820191906000526020600020905b815481529060010190602001808311611f2b57829003601f168201915b50505050508152602001600682015481526020016007820154815260200160088201805480602002602001604051908101604052809291908181526020018280548015611fea57602002820191906000526020600020905b8160009054906101000a900473ffffffffffffffffffffffffffffffffffffffff1673ffffffffffffffffffffffffffffffffffffffff1681526020019060010190808311611fa0575b505050505081526020016009820160009054906101000a900460ff1615151515815250508260018361201c9190613e17565b8151811061202d5761202c613eb7565b5b6020026020010181905250808061204390614351565b915050611c35565b508091505090565b600760009054906101000a900460ff1681565b600060106000838152602001908152602001600020549050919050565b61208c33612940565b6120cb576040517f08c379a00000000000000000000000000000000000000000000000000000000081526004016120c290613cf0565b60405180910390fd5b6000811180156120dd57506008548111155b61211c576040517f08c379a000000000000000000000000000000000000000000000000000000000815260040161211390613d5c565b60405180910390fd5b6000600d6000838152602001908152602001600020905060018160090160006101000a81548160ff0219169083151502179055507fa06f724666d0a2bde56689ccf4d2e4b5e3e76d852cf31aa25c2e214db33ffe5f8260405161217f9190613298565b60405180910390a15050565b60606000600b8054905067ffffffffffffffff8111156121ae576121ad613542565b5b6040519080825280602002602001820160405280156121e757816020015b6121d4613193565b8152602001906001900390816121cc5790505b50905060005b600b8054905081101561237457600b818154811061220e5761220d613eb7565b5b906000526020600020906002020160000160009054906101000a900473ffffffffffffffffffffffffffffffffffffffff1682828151811061225357612252613eb7565b5b60200260200101516000019073ffffffffffffffffffffffffffffffffffffffff16908173ffffffffffffffffffffffffffffffffffffffff1681525050600b81815481106122a5576122a4613eb7565b5b906000526020600020906002020160010180546122c190613f81565b80601f01602080910402602001604051908101604052809291908181526020018280546122ed90613f81565b801561233a5780601f1061230f5761010080835404028352916020019161233a565b820191906000526020600020905b81548152906001019060200180831161231d57829003601f168201915b505050505082828151811061235257612351613eb7565b5b602002602001015160200181905250808061236c90614351565b9150506121ed565b508091505090565b600d6020528060005260406000206000915090508060000160009054906101000a900473ffffffffffffffffffffffffffffffffffffffff16908060010160009054906101000a900473ffffffffffffffffffffffffffffffffffffffff16908060020180546123eb90613f81565b80601f016020809104026020016040519081016040528092919081815260200182805461241790613f81565b80156124645780601f1061243957610100808354040283529160200191612464565b820191906000526020600020905b81548152906001019060200180831161244757829003601f168201915b50505050509080600301805461247990613f81565b80601f01602080910402602001604051908101604052809291908181526020018280546124a590613f81565b80156124f25780601f106124c7576101008083540402835291602001916124f2565b820191906000526020600020905b8154815290600101906020018083116124d557829003601f168201915b50505050509080600401805461250790613f81565b80601f016020809104026020016040519081016040528092919081815260200182805461253390613f81565b80156125805780601f1061255557610100808354040283529160200191612580565b820191906000526020600020905b81548152906001019060200180831161256357829003601f168201915b50505050509080600501805461259590613f81565b80601f01602080910402602001604051908101604052809291908181526020018280546125c190613f81565b801561260e5780601f106125e35761010080835404028352916020019161260e565b820191906000526020600020905b8154815290600101906020018083116125f157829003601f168201915b5050505050908060060154908060070154908060090160009054906101000a900460ff16905089565b600160009054906101000a900473ffffffffffffffffffffffffffffffffffffffff1681565b600e6020528060005260406000206000915090505481565b6009818154811061268557600080fd5b90600052602060002090600a02016000915090508060000160009054906101000a900473ffffffffffffffffffffffffffffffffffffffff16908060010160009054906101000a900473ffffffffffffffffffffffffffffffffffffffff16908060020180546126f490613f81565b80601f016020809104026020016040519081016040528092919081815260200182805461272090613f81565b801561276d5780601f106127425761010080835404028352916020019161276d565b820191906000526020600020905b81548152906001019060200180831161275057829003601f168201915b50505050509080600301805461278290613f81565b80601f01602080910402602001604051908101604052809291908181526020018280546127ae90613f81565b80156127fb5780601f106127d0576101008083540402835291602001916127fb565b820191906000526020600020905b8154815290600101906020018083116127de57829003601f168201915b50505050509080600401805461281090613f81565b80601f016020809104026020016040519081016040528092919081815260200182805461283c90613f81565b80156128895780601f1061285e57610100808354040283529160200191612889565b820191906000526020600020905b81548152906001019060200180831161286c57829003601f168201915b50505050509080600501805461289e90613f81565b80601f01602080910402602001604051908101604052809291908181526020018280546128ca90613f81565b80156129175780601f106128ec57610100808354040283529160200191612917565b820191906000526020600020905b8154815290600101906020018083116128fa57829003601f168201915b5050505050908060060154908060070154908060090160009054906101000a900460ff16905089565b600080600090505b600a805490508110156129e3578273ffffffffffffffffffffffffffffffffffffffff16600a82815481106129805761297f613eb7565b5b9060005260206000200160009054906101000a900473ffffffffffffffffffffffffffffffffffffffff1673ffffffffffffffffffffffffffffffffffffffff16036129d05760019150506129e9565b80806129db90614351565b915050612948565b50600090505b919050565b6000600d600084815260200190815260200160002090508060000160009054906101000a900473ffffffffffffffffffffffffffffffffffffffff1673ffffffffffffffffffffffffffffffffffffffff163373ffffffffffffffffffffffffffffffffffffffff161480612ab257508060010160009054906101000a900473ffffffffffffffffffffffffffffffffffffffff1673ffffffffffffffffffffffffffffffffffffffff163373ffffffffffffffffffffffffffffffffffffffff16145b612af1576040517f08c379a0000000000000000000000000000000000000000000000000000000008152600401612ae89061451e565b60405180910390fd5b6010600084815260200190815260200160002054821115612b47576040517f08c379a0000000000000000000000000000000000000000000000000000000008152600401612b3e906145b0565b60405180910390fd5b81601060008581526020019081526020016000206000828254612b6a9190613e17565b9250508190555060003073ffffffffffffffffffffffffffffffffffffffff1683604051612b9790614601565b60006040518083038185875af1925050503d8060008114612bd4576040519150601f19603f3d011682016040523d82523d6000602084013e612bd9565b606091505b5050905080612c1d576040517f08c379a0000000000000000000000000000000000000000000000000000000008152600401612c1490614662565b60405180910390fd5b50505050565b6000815111612c67576040517f08c379a0000000000000000000000000000000000000000000000000000000008152600401612c5e906146ce565b60405180910390fd5b612c7033611b1d565b15612cb0576040517f08c379a0000000000000000000000000000000000000000000000000000000008152600401612ca79061473a565b60405180910390fd5b600060405180604001604052803373ffffffffffffffffffffffffffffffffffffffff168152602001838152509050600b81908060018154018082558091505060019003906000526020600020906002020160009091909190915060008201518160000160006101000a81548173ffffffffffffffffffffffffffffffffffffffff021916908373ffffffffffffffffffffffffffffffffffffffff1602179055506020820151816001019081612d6791906143c2565b5050505050565b600260009054906101000a900473ffffffffffffffffffffffffffffffffffffffff1681565b6000600d600084815260200190815260200160002090508060000160009054906101000a900473ffffffffffffffffffffffffffffffffffffffff1673ffffffffffffffffffffffffffffffffffffffff163373ffffffffffffffffffffffffffffffffffffffff161480612e5857508060010160009054906101000a900473ffffffffffffffffffffffffffffffffffffffff1673ffffffffffffffffffffffffffffffffffffffff163373ffffffffffffffffffffffffffffffffffffffff16145b612e97576040517f08c379a0000000000000000000000000000000000000000000000000000000008152600401612e8e906147a6565b60405180910390fd5b8060070154821115612ede576040517f08c379a0000000000000000000000000000000000000000000000000000000008152600401612ed590614812565b60405180910390fd5b81816007016000828254612ef29190613e17565b9250508190555081601060008581526020019081526020016000206000828254612f1c919061431d565b9250508190555060003373ffffffffffffffffffffffffffffffffffffffff1683604051612f4990614601565b60006040518083038185875af1925050503d8060008114612f86576040519150601f19603f3d011682016040523d82523d6000602084013e612f8b565b606091505b5050905080612fcf576040517f08c379a0000000000000000000000000000000000000000000000000000000008152600401612fc69061487e565b60405180910390fd5b50505050565b8280548282559060005260206000209081019282156130165760005260206000209182015b82811115613015578254825591600101919060010190612ffa565b5b50905061302391906131c3565b5090565b50805461303390613f81565b6000825580601f106130455750613064565b601f01602090049060005260206000209081019061306391906131c3565b5b50565b508054600082559060005260206000209081019061308591906131c3565b50565b828054828255906000526020600020908101928215613101579160200282015b828111156131005782518260006101000a81548173ffffffffffffffffffffffffffffffffffffffff021916908373ffffffffffffffffffffffffffffffffffffffff160217905550916020019190600101906130a8565b5b50905061310e91906131c3565b5090565b604051806101400160405280600073ffffffffffffffffffffffffffffffffffffffff168152602001600073ffffffffffffffffffffffffffffffffffffffff168152602001606081526020016060815260200160608152602001606081526020016000815260200160008152602001606081526020016000151581525090565b6040518060400160405280600073ffffffffffffffffffffffffffffffffffffffff168152602001606081525090565b5b808211156131dc5760008160009055506001016131c4565b5090565b6000604051905090565b600080fd5b600080fd5b600073ffffffffffffffffffffffffffffffffffffffff82169050919050565b600061321f826131f4565b9050919050565b61322f81613214565b811461323a57600080fd5b50565b60008135905061324c81613226565b92915050565b600060208284031215613268576132676131ea565b5b60006132768482850161323d565b91505092915050565b6000819050919050565b6132928161327f565b82525050565b60006020820190506132ad6000830184613289565b92915050565b6132bc8161327f565b81146132c757600080fd5b50565b6000813590506132d9816132b3565b92915050565b6000602082840312156132f5576132f46131ea565b5b6000613303848285016132ca565b91505092915050565b61331581613214565b82525050565b600081519050919050565b600082825260208201905092915050565b60005b8381101561335557808201518184015260208101905061333a565b60008484015250505050565b6000601f19601f8301169050919050565b600061337d8261331b565b6133878185613326565b9350613397818560208601613337565b6133a081613361565b840191505092915050565b60006040820190506133c0600083018561330c565b81810360208301526133d28184613372565b90509392505050565b600060208201905081810360008301526133f58184613372565b905092915050565b600081519050919050565b600082825260208201905092915050565b6000819050602082019050919050565b61343281613214565b82525050565b60006134448383613429565b60208301905092915050565b6000602082019050919050565b6000613468826133fd565b6134728185613408565b935061347d83613419565b8060005b838110156134ae5781516134958882613438565b97506134a083613450565b925050600181019050613481565b5085935050505092915050565b600060208201905081810360008301526134d5818461345d565b905092915050565b600080604083850312156134f4576134f36131ea565b5b60006135028582860161323d565b9250506020613513858286016132ca565b9150509250929050565b6000602082019050613532600083018461330c565b92915050565b600080fd5b600080fd5b7f4e487b7100000000000000000000000000000000000000000000000000000000600052604160045260246000fd5b61357a82613361565b810181811067ffffffffffffffff8211171561359957613598613542565b5b80604052505050565b60006135ac6131e0565b90506135b88282613571565b919050565b600067ffffffffffffffff8211156135d8576135d7613542565b5b6135e182613361565b9050602081019050919050565b82818337600083830152505050565b600061361061360b846135bd565b6135a2565b90508281526020810184848401111561362c5761362b61353d565b5b6136378482856135ee565b509392505050565b600082601f83011261365457613653613538565b5b81356136648482602086016135fd565b91505092915050565b60008060008060008060c0878903121561368a576136896131ea565b5b600061369889828a0161323d565b96505060206136a989828a0161323d565b955050604087013567ffffffffffffffff8111156136ca576136c96131ef565b5b6136d689828a0161363f565b945050606087013567ffffffffffffffff8111156136f7576136f66131ef565b5b61370389828a0161363f565b935050608087013567ffffffffffffffff811115613724576137236131ef565b5b61373089828a0161363f565b92505060a087013567ffffffffffffffff811115613751576137506131ef565b5b61375d89828a0161363f565b9150509295509295509295565b60008115159050919050565b61377f8161376a565b82525050565b600060208201905061379a6000830184613776565b92915050565b600081519050919050565b600082825260208201905092915050565b6000819050602082019050919050565b600082825260208201905092915050565b60006137e88261331b565b6137f281856137cc565b9350613802818560208601613337565b61380b81613361565b840191505092915050565b61381f8161327f565b82525050565b600082825260208201905092915050565b6000613841826133fd565b61384b8185613825565b935061385683613419565b8060005b8381101561388757815161386e8882613438565b975061387983613450565b92505060018101905061385a565b5085935050505092915050565b61389d8161376a565b82525050565b6000610140830160008301516138bc6000860182613429565b5060208301516138cf6020860182613429565b50604083015184820360408601526138e782826137dd565b9150506060830151848203606086015261390182826137dd565b9150506080830151848203608086015261391b82826137dd565b91505060a083015184820360a086015261393582826137dd565b91505060c083015161394a60c0860182613816565b5060e083015161395d60e0860182613816565b506101008301518482036101008601526139778282613836565b91505061012083015161398e610120860182613894565b508091505092915050565b60006139a583836138a3565b905092915050565b6000602082019050919050565b60006139c5826137a0565b6139cf81856137ab565b9350836020820285016139e1856137bc565b8060005b85811015613a1d57848403895281516139fe8582613999565b9450613a09836139ad565b925060208a019950506001810190506139e5565b50829750879550505050505092915050565b60006020820190508181036000830152613a4981846139ba565b905092915050565b600081519050919050565b600082825260208201905092915050565b6000819050602082019050919050565b6000604083016000830151613a956000860182613429565b5060208301518482036020860152613aad82826137dd565b9150508091505092915050565b6000613ac68383613a7d565b905092915050565b6000602082019050919050565b6000613ae682613a51565b613af08185613a5c565b935083602082028501613b0285613a6d565b8060005b85811015613b3e5784840389528151613b1f8582613aba565b9450613b2a83613ace565b925060208a01995050600181019050613b06565b50829750879550505050505092915050565b60006020820190508181036000830152613b6a8184613adb565b905092915050565b600061012082019050613b88600083018c61330c565b613b95602083018b61330c565b8181036040830152613ba7818a613372565b90508181036060830152613bbb8189613372565b90508181036080830152613bcf8188613372565b905081810360a0830152613be38187613372565b9050613bf260c0830186613289565b613bff60e0830185613289565b613c0d610100830184613776565b9a9950505050505050505050565b60008060408385031215613c3257613c316131ea565b5b6000613c40858286016132ca565b9250506020613c51858286016132ca565b9150509250929050565b600060208284031215613c7157613c706131ea565b5b600082013567ffffffffffffffff811115613c8f57613c8e6131ef565b5b613c9b8482850161363f565b91505092915050565b7f556e617574686f72697a65642061636365737300000000000000000000000000600082015250565b6000613cda601383613326565b9150613ce582613ca4565b602082019050919050565b60006020820190508181036000830152613d0981613ccd565b9050919050565b7f496e76616c69642044414f204944000000000000000000000000000000000000600082015250565b6000613d46600e83613326565b9150613d5182613d10565b602082019050919050565b60006020820190508181036000830152613d7581613d39565b9050919050565b7f43616e6e6f742072656d6f766520612076657269666965642044414f00000000600082015250565b6000613db2601c83613326565b9150613dbd82613d7c565b602082019050919050565b60006020820190508181036000830152613de181613da5565b9050919050565b7f4e487b7100000000000000000000000000000000000000000000000000000000600052601160045260246000fd5b6000613e228261327f565b9150613e2d8361327f565b9250828203905081811115613e4557613e44613de8565b5b92915050565b7f496e76616c696420696e64657800000000000000000000000000000000000000600082015250565b6000613e81600d83613326565b9150613e8c82613e4b565b602082019050919050565b60006020820190508181036000830152613eb081613e74565b9050919050565b7f4e487b7100000000000000000000000000000000000000000000000000000000600052603260045260246000fd5b7f496e76616c69642044414f20494420696e20746f74616c44414f730000000000600082015250565b6000613f1c601b83613326565b9150613f2782613ee6565b602082019050919050565b60006020820190508181036000830152613f4b81613f0f565b9050919050565b7f4e487b7100000000000000000000000000000000000000000000000000000000600052602260045260246000fd5b60006002820490506001821680613f9957607f821691505b602082108103613fac57613fab613f52565b5b50919050565b600081549050613fc181613f81565b9050919050565b60008190508160005260206000209050919050565b60006020601f8301049050919050565b600082821b905092915050565b60006008830261402a7fffffffffffffffffffffffffffffffffffffffffffffffffffffffffffffffff82613fed565b6140348683613fed565b95508019841693508086168417925050509392505050565b6000819050919050565b600061407161406c6140678461327f565b61404c565b61327f565b9050919050565b6000819050919050565b61408b83614056565b61409f61409782614078565b848454613ffa565b825550505050565b600090565b6140b46140a7565b6140bf818484614082565b505050565b5b818110156140e3576140d86000826140ac565b6001810190506140c5565b5050565b601f821115614128576140f981613fc8565b61410284613fdd565b81016020851015614111578190505b61412561411d85613fdd565b8301826140c4565b50505b505050565b600082821c905092915050565b600061414b6000198460080261412d565b1980831691505092915050565b6000614164838361413a565b9150826002028217905092915050565b81810361418257505061425a565b61418b82613fb2565b67ffffffffffffffff8111156141a4576141a3613542565b5b6141ae8254613f81565b6141b98282856140e7565b6000601f8311600181146141e857600084156141d6578287015490505b6141e08582614158565b865550614253565b601f1984166141f687613fc8565b965061420186613fc8565b60005b8281101561422957848901548255600182019150600185019450602081019050614204565b868310156142465784890154614242601f89168261413a565b8355505b6001600288020188555050505b5050505050505b565b7f4e487b7100000000000000000000000000000000000000000000000000000000600052603160045260246000fd5b7f4f6e6c7920616464726573736573207468617420686176656e2774206a6f696e60008201527f6564207468652044414f2063616e20696e766573742e00000000000000000000602082015250565b60006142e7603683613326565b91506142f28261428b565b604082019050919050565b60006020820190508181036000830152614316816142da565b9050919050565b60006143288261327f565b91506143338361327f565b925082820190508082111561434b5761434a613de8565b5b92915050565b600061435c8261327f565b91507fffffffffffffffffffffffffffffffffffffffffffffffffffffffffffffffff820361438e5761438d613de8565b5b600182019050919050565b60006040820190506143ae600083018561330c565b6143bb6020830184613289565b9392505050565b6143cb8261331b565b67ffffffffffffffff8111156143e4576143e3613542565b5b6143ee8254613f81565b6143f98282856140e7565b600060209050601f83116001811461442c576000841561441a578287015190505b6144248582614158565b86555061448c565b601f19841661443a86613fc8565b60005b828110156144625784890151825560018201915060208501945060208101905061443d565b8683101561447f578489015161447b601f89168261413a565b8355505b6001600288020188555050505b505050505050565b60006060820190506144a9600083018661330c565b6144b66020830185613289565b81810360408301526144c88184613372565b9050949350505050565b7f4f6e6c79206661726d6572732063616e2072657061792066756e647321000000600082015250565b6000614508601d83613326565b9150614513826144d2565b602082019050919050565b60006020820190508181036000830152614537816144fb565b9050919050565b7f416d6f756e7420746f207265706179206578636565647320746f74616c20616d60008201527f6f756e742077697468647261776e2e0000000000000000000000000000000000602082015250565b600061459a602f83613326565b91506145a58261453e565b604082019050919050565b600060208201905081810360008301526145c98161458d565b9050919050565b600081905092915050565b50565b60006145eb6000836145d0565b91506145f6826145db565b600082019050919050565b600061460c826145de565b9150819050919050565b7f4661696c656420746f207472616e736665722066756e647320746f2044414f2e600082015250565b600061464c602083613326565b915061465782614616565b602082019050919050565b6000602082019050818103600083015261467b8161463f565b9050919050565b7f4e616d652063616e6e6f7420626520656d707479000000000000000000000000600082015250565b60006146b8601483613326565b91506146c382614682565b602082019050919050565b600060208201905081810360008301526146e7816146ab565b9050919050565b7f496e766573746f7220697320616c726561647920726567697374657265640000600082015250565b6000614724601e83613326565b915061472f826146ee565b602082019050919050565b6000602082019050818103600083015261475381614717565b9050919050565b7f4f6e6c79206661726d6572732063616e2077697468647261772066756e647321600082015250565b6000614790602083613326565b915061479b8261475a565b602082019050919050565b600060208201905081810360008301526147bf81614783565b9050919050565b7f496e73756666696369656e742066756e647320746f2077697468647261772100600082015250565b60006147fc601f83613326565b9150614807826147c6565b602082019050919050565b6000602082019050818103600083015261482b816147ef565b9050919050565b7f4661696c656420746f207472616e736665722066756e64732100000000000000600082015250565b6000614868601983613326565b915061487382614832565b602082019050919050565b600060208201905081810360008301526148978161485b565b905091905056fea264697066735822122038b2a1870f488b1abe1ef7b9464bbbc43cd8e11623f3c56dc2f2eef47bc729a364736f6c63430008130033",
  "linkReferences": {},
  "deployedLinkReferences": {}
}