{
  "_format": "hh-sol-artifact-1",
  "contractName": "Verify",
  "sourceName": "contracts/Verfify.sol",
  "abi": [
    {
      "inputs": [
        {
          "internalType": "address",
          "name": "farmDAOAddress",
          "type": "address"
        }
      ],
      "stateMutability": "nonpayable",
      "type": "constructor"
    },
    {
      "inputs": [
        {
          "internalType": "uint256",
          "name": "",
          "type": "uint256"
        }
      ],
      "name": "allDaos",
      "outputs": [
        {
          "internalType": "address",
          "name": "address1",
          "type": "address"
        },
        {
          "internalType": "address",
          "name": "address2",
          "type": "address"
        },
        {
          "internalType": "string",
          "name": "description",
          "type": "string"
        },
        {
          "internalType": "string",
          "name": "farmReports",
          "type": "string"
        },
        {
          "internalType": "string",
          "name": "financialReports",
          "type": "string"
        },
        {
          "internalType": "string",
          "name": "name",
          "type": "string"
        },
        {
          "internalType": "uint256",
          "name": "id",
          "type": "uint256"
        },
        {
          "internalType": "uint256",
          "name": "amountInvested",
          "type": "uint256"
        }
      ],
      "stateMutability": "view",
      "type": "function"
    },
    {
      "inputs": [
        {
          "internalType": "uint256",
          "name": "",
          "type": "uint256"
        }
      ],
      "name": "daoVerificationStatus",
      "outputs": [
        {
          "internalType": "bool",
          "name": "",
          "type": "bool"
        }
      ],
      "stateMutability": "view",
      "type": "function"
    },
    {
      "inputs": [],
      "name": "farmDAO",
      "outputs": [
        {
          "internalType": "contract IFarmDAO",
          "name": "",
          "type": "address"
        }
      ],
      "stateMutability": "view",
      "type": "function"
    },
    {
      "inputs": [],
      "name": "getAllDaos",
      "outputs": [
        {
          "components": [
            {
              "internalType": "address",
              "name": "address1",
              "type": "address"
            },
            {
              "internalType": "address",
              "name": "address2",
              "type": "address"
            },
            {
              "internalType": "string",
              "name": "description",
              "type": "string"
            },
            {
              "internalType": "string",
              "name": "farmReports",
              "type": "string"
            },
            {
              "internalType": "string",
              "name": "financialReports",
              "type": "string"
            },
            {
              "internalType": "string",
              "name": "name",
              "type": "string"
            },
            {
              "internalType": "uint256",
              "name": "id",
              "type": "uint256"
            },
            {
              "internalType": "uint256",
              "name": "amountInvested",
              "type": "uint256"
            },
            {
              "internalType": "address[]",
              "name": "investors",
              "type": "address[]"
            }
          ],
          "internalType": "struct IFarmDAO.Dao[]",
          "name": "",
          "type": "tuple[]"
        }
      ],
      "stateMutability": "nonpayable",
      "type": "function"
    },
    {
      "inputs": [
        {
          "internalType": "address",
          "name": "_address",
          "type": "address"
        }
      ],
      "name": "isAddressVerified",
      "outputs": [
        {
          "internalType": "bool",
          "name": "",
          "type": "bool"
        }
      ],
      "stateMutability": "view",
      "type": "function"
    },
    {
      "inputs": [
        {
          "internalType": "uint256",
          "name": "daoId",
          "type": "uint256"
        }
      ],
      "name": "performVerification",
      "outputs": [],
      "stateMutability": "nonpayable",
      "type": "function"
    }
  ],
  "bytecode": "0x60806040523480156200001157600080fd5b50604051620020493803806200204983398181016040528101906200003791906200030d565b80600260006101000a81548173ffffffffffffffffffffffffffffffffffffffff021916908373ffffffffffffffffffffffffffffffffffffffff16021790555060007313ef924eb7408e90278b86b659960afb00ddae619080600181540180825580915050600190039060005260206000200160009091909190916101000a81548173ffffffffffffffffffffffffffffffffffffffff021916908373ffffffffffffffffffffffffffffffffffffffff16021790555060007323792579e2979a98d12a33a85e35914079304a569080600181540180825580915050600190039060005260206000200160009091909190916101000a81548173ffffffffffffffffffffffffffffffffffffffff021916908373ffffffffffffffffffffffffffffffffffffffff160217905550600073dc4f6ea5856eda459286e8d0ef42e389d07137ff9080600181540180825580915050600190039060005260206000200160009091909190916101000a81548173ffffffffffffffffffffffffffffffffffffffff021916908373ffffffffffffffffffffffffffffffffffffffff16021790555060005b6000805490508110156200029b5760018060008084815481106200020957620002086200033f565b5b9060005260206000200160009054906101000a900473ffffffffffffffffffffffffffffffffffffffff1673ffffffffffffffffffffffffffffffffffffffff1673ffffffffffffffffffffffffffffffffffffffff16815260200190815260200160002060006101000a81548160ff02191690831515021790555080806200029290620003a7565b915050620001e0565b5050620003f4565b600080fd5b600073ffffffffffffffffffffffffffffffffffffffff82169050919050565b6000620002d582620002a8565b9050919050565b620002e781620002c8565b8114620002f357600080fd5b50565b6000815190506200030781620002dc565b92915050565b600060208284031215620003265762000325620002a3565b5b60006200033684828501620002f6565b91505092915050565b7f4e487b7100000000000000000000000000000000000000000000000000000000600052603260045260246000fd5b7f4e487b7100000000000000000000000000000000000000000000000000000000600052601160045260246000fd5b6000819050919050565b6000620003b4826200039d565b91507fffffffffffffffffffffffffffffffffffffffffffffffffffffffffffffffff8203620003e957620003e86200036e565b5b600182019050919050565b611c4580620004046000396000f3fe608060405234801561001057600080fd5b50600436106100625760003560e01c8063411c186a14610067578063780e87e614610097578063aa5b6d4c146100b3578063ce15cd68146100d1578063da9dd8bf146100ef578063e85f857e1461011f575b600080fd5b610081600480360381019061007c9190610d79565b610156565b60405161008e9190610dc1565b60405180910390f35b6100b160048036038101906100ac9190610d79565b610176565b005b6100bb610210565b6040516100c8919061110e565b60405180910390f35b6100d9610845565b6040516100e6919061118f565b60405180910390f35b610109600480360381019061010491906111d6565b61086b565b6040516101169190610dc1565b60405180910390f35b61013960048036038101906101349190610d79565b6108c1565b60405161014d98979695949392919061126b565b60405180910390f35b60046020528060005260406000206000915054906101000a900460ff1681565b600160003373ffffffffffffffffffffffffffffffffffffffff1673ffffffffffffffffffffffffffffffffffffffff16815260200190815260200160002060009054906101000a900460ff16610202576040517f08c379a00000000000000000000000000000000000000000000000000000000081526004016101f990611351565b60405180910390fd5b61020d816001610b79565b50565b60606000600260009054906101000a900473ffffffffffffffffffffffffffffffffffffffff1673ffffffffffffffffffffffffffffffffffffffff1663aa5b6d4c6040518163ffffffff1660e01b8152600401600060405180830381865afa158015610281573d6000803e3d6000fd5b505050506040513d6000823e3d601f19601f820116820180604052508101906102aa91906117e0565b905060005b815181101561044f578181815181106102cb576102ca611829565b5b6020026020010151600382815481106102e7576102e6611829565b5b906000526020600020906009020160008201518160000160006101000a81548173ffffffffffffffffffffffffffffffffffffffff021916908373ffffffffffffffffffffffffffffffffffffffff16021790555060208201518160010160006101000a81548173ffffffffffffffffffffffffffffffffffffffff021916908373ffffffffffffffffffffffffffffffffffffffff16021790555060408201518160020190816103989190611a5a565b5060608201518160030190816103ae9190611a5a565b5060808201518160040190816103c49190611a5a565b5060a08201518160050190816103da9190611a5a565b5060c0820151816006015560e0820151816007015561010082015181600801908051906020019061040c929190610c88565b5090505060006004600083815260200190815260200160002060006101000a81548160ff021916908315150217905550808061044790611b5b565b9150506102af565b506003805480602002602001604051908101604052809291908181526020016000905b8282101561083b5783829060005260206000209060090201604051806101200160405290816000820160009054906101000a900473ffffffffffffffffffffffffffffffffffffffff1673ffffffffffffffffffffffffffffffffffffffff1673ffffffffffffffffffffffffffffffffffffffff1681526020016001820160009054906101000a900473ffffffffffffffffffffffffffffffffffffffff1673ffffffffffffffffffffffffffffffffffffffff1673ffffffffffffffffffffffffffffffffffffffff16815260200160028201805461055290611887565b80601f016020809104026020016040519081016040528092919081815260200182805461057e90611887565b80156105cb5780601f106105a0576101008083540402835291602001916105cb565b820191906000526020600020905b8154815290600101906020018083116105ae57829003601f168201915b505050505081526020016003820180546105e490611887565b80601f016020809104026020016040519081016040528092919081815260200182805461061090611887565b801561065d5780601f106106325761010080835404028352916020019161065d565b820191906000526020600020905b81548152906001019060200180831161064057829003601f168201915b5050505050815260200160048201805461067690611887565b80601f01602080910402602001604051908101604052809291908181526020018280546106a290611887565b80156106ef5780601f106106c4576101008083540402835291602001916106ef565b820191906000526020600020905b8154815290600101906020018083116106d257829003601f168201915b5050505050815260200160058201805461070890611887565b80601f016020809104026020016040519081016040528092919081815260200182805461073490611887565b80156107815780601f1061075657610100808354040283529160200191610781565b820191906000526020600020905b81548152906001019060200180831161076457829003601f168201915b5050505050815260200160068201548152602001600782015481526020016008820180548060200260200160405190810160405280929190818152602001828054801561082357602002820191906000526020600020905b8160009054906101000a900473ffffffffffffffffffffffffffffffffffffffff1673ffffffffffffffffffffffffffffffffffffffff16815260200190600101908083116107d9575b50505050508152505081526020019060010190610472565b5050505091505090565b600260009054906101000a900473ffffffffffffffffffffffffffffffffffffffff1681565b6000600160008373ffffffffffffffffffffffffffffffffffffffff1673ffffffffffffffffffffffffffffffffffffffff16815260200190815260200160002060009054906101000a900460ff169050919050565b600381815481106108d157600080fd5b90600052602060002090600902016000915090508060000160009054906101000a900473ffffffffffffffffffffffffffffffffffffffff16908060010160009054906101000a900473ffffffffffffffffffffffffffffffffffffffff169080600201805461094090611887565b80601f016020809104026020016040519081016040528092919081815260200182805461096c90611887565b80156109b95780601f1061098e576101008083540402835291602001916109b9565b820191906000526020600020905b81548152906001019060200180831161099c57829003601f168201915b5050505050908060030180546109ce90611887565b80601f01602080910402602001604051908101604052809291908181526020018280546109fa90611887565b8015610a475780601f10610a1c57610100808354040283529160200191610a47565b820191906000526020600020905b815481529060010190602001808311610a2a57829003601f168201915b505050505090806004018054610a5c90611887565b80601f0160208091040260200160405190810160405280929190818152602001828054610a8890611887565b8015610ad55780601f10610aaa57610100808354040283529160200191610ad5565b820191906000526020600020905b815481529060010190602001808311610ab857829003601f168201915b505050505090806005018054610aea90611887565b80601f0160208091040260200160405190810160405280929190818152602001828054610b1690611887565b8015610b635780601f10610b3857610100808354040283529160200191610b63565b820191906000526020600020905b815481529060010190602001808311610b4657829003601f168201915b5050505050908060060154908060070154905088565b600160003373ffffffffffffffffffffffffffffffffffffffff1673ffffffffffffffffffffffffffffffffffffffff16815260200190815260200160002060009054906101000a900460ff16610c05576040517f08c379a0000000000000000000000000000000000000000000000000000000008152600401610bfc90611351565b60405180910390fd5b600082118015610c1a57506003805490508211155b610c59576040517f08c379a0000000000000000000000000000000000000000000000000000000008152600401610c5090611bef565b60405180910390fd5b806004600084815260200190815260200160002060006101000a81548160ff0219169083151502179055505050565b828054828255906000526020600020908101928215610d01579160200282015b82811115610d005782518260006101000a81548173ffffffffffffffffffffffffffffffffffffffff021916908373ffffffffffffffffffffffffffffffffffffffff16021790555091602001919060010190610ca8565b5b509050610d0e9190610d12565b5090565b5b80821115610d2b576000816000905550600101610d13565b5090565b6000604051905090565b600080fd5b600080fd5b6000819050919050565b610d5681610d43565b8114610d6157600080fd5b50565b600081359050610d7381610d4d565b92915050565b600060208284031215610d8f57610d8e610d39565b5b6000610d9d84828501610d64565b91505092915050565b60008115159050919050565b610dbb81610da6565b82525050565b6000602082019050610dd66000830184610db2565b92915050565b600081519050919050565b600082825260208201905092915050565b6000819050602082019050919050565b600073ffffffffffffffffffffffffffffffffffffffff82169050919050565b6000610e3382610e08565b9050919050565b610e4381610e28565b82525050565b600081519050919050565b600082825260208201905092915050565b60005b83811015610e83578082015181840152602081019050610e68565b60008484015250505050565b6000601f19601f8301169050919050565b6000610eab82610e49565b610eb58185610e54565b9350610ec5818560208601610e65565b610ece81610e8f565b840191505092915050565b610ee281610d43565b82525050565b600081519050919050565b600082825260208201905092915050565b6000819050602082019050919050565b6000610f208383610e3a565b60208301905092915050565b6000602082019050919050565b6000610f4482610ee8565b610f4e8185610ef3565b9350610f5983610f04565b8060005b83811015610f8a578151610f718882610f14565b9750610f7c83610f2c565b925050600181019050610f5d565b5085935050505092915050565b600061012083016000830151610fb06000860182610e3a565b506020830151610fc36020860182610e3a565b5060408301518482036040860152610fdb8282610ea0565b91505060608301518482036060860152610ff58282610ea0565b9150506080830151848203608086015261100f8282610ea0565b91505060a083015184820360a08601526110298282610ea0565b91505060c083015161103e60c0860182610ed9565b5060e083015161105160e0860182610ed9565b5061010083015184820361010086015261106b8282610f39565b9150508091505092915050565b60006110848383610f97565b905092915050565b6000602082019050919050565b60006110a482610ddc565b6110ae8185610de7565b9350836020820285016110c085610df8565b8060005b858110156110fc57848403895281516110dd8582611078565b94506110e88361108c565b925060208a019950506001810190506110c4565b50829750879550505050505092915050565b600060208201905081810360008301526111288184611099565b905092915050565b6000819050919050565b600061115561115061114b84610e08565b611130565b610e08565b9050919050565b60006111678261113a565b9050919050565b60006111798261115c565b9050919050565b6111898161116e565b82525050565b60006020820190506111a46000830184611180565b92915050565b6111b381610e28565b81146111be57600080fd5b50565b6000813590506111d0816111aa565b92915050565b6000602082840312156111ec576111eb610d39565b5b60006111fa848285016111c1565b91505092915050565b61120c81610e28565b82525050565b600082825260208201905092915050565b600061122e82610e49565b6112388185611212565b9350611248818560208601610e65565b61125181610e8f565b840191505092915050565b61126581610d43565b82525050565b600061010082019050611281600083018b611203565b61128e602083018a611203565b81810360408301526112a08189611223565b905081810360608301526112b48188611223565b905081810360808301526112c88187611223565b905081810360a08301526112dc8186611223565b90506112eb60c083018561125c565b6112f860e083018461125c565b9998505050505050505050565b7f556e617574686f72697a65642061636365737300000000000000000000000000600082015250565b600061133b601383611212565b915061134682611305565b602082019050919050565b6000602082019050818103600083015261136a8161132e565b9050919050565b600080fd5b7f4e487b7100000000000000000000000000000000000000000000000000000000600052604160045260246000fd5b6113ae82610e8f565b810181811067ffffffffffffffff821117156113cd576113cc611376565b5b80604052505050565b60006113e0610d2f565b90506113ec82826113a5565b919050565b600067ffffffffffffffff82111561140c5761140b611376565b5b602082029050602081019050919050565b600080fd5b600080fd5b600080fd5b60008151905061143b816111aa565b92915050565b600080fd5b600067ffffffffffffffff82111561146157611460611376565b5b61146a82610e8f565b9050602081019050919050565b600061148a61148584611446565b6113d6565b9050828152602081018484840111156114a6576114a5611441565b5b6114b1848285610e65565b509392505050565b600082601f8301126114ce576114cd611371565b5b81516114de848260208601611477565b91505092915050565b6000815190506114f681610d4d565b92915050565b600067ffffffffffffffff82111561151757611516611376565b5b602082029050602081019050919050565b600061153b611536846114fc565b6113d6565b9050808382526020820190506020840283018581111561155e5761155d61141d565b5b835b818110156115875780611573888261142c565b845260208401935050602081019050611560565b5050509392505050565b600082601f8301126115a6576115a5611371565b5b81516115b6848260208601611528565b91505092915050565b600061012082840312156115d6576115d5611422565b5b6115e16101206113d6565b905060006115f18482850161142c565b60008301525060206116058482850161142c565b602083015250604082015167ffffffffffffffff81111561162957611628611427565b5b611635848285016114b9565b604083015250606082015167ffffffffffffffff81111561165957611658611427565b5b611665848285016114b9565b606083015250608082015167ffffffffffffffff81111561168957611688611427565b5b611695848285016114b9565b60808301525060a082015167ffffffffffffffff8111156116b9576116b8611427565b5b6116c5848285016114b9565b60a08301525060c06116d9848285016114e7565b60c08301525060e06116ed848285016114e7565b60e08301525061010082015167ffffffffffffffff81111561171257611711611427565b5b61171e84828501611591565b6101008301525092915050565b600061173e611739846113f1565b6113d6565b905080838252602082019050602084028301858111156117615761176061141d565b5b835b818110156117a857805167ffffffffffffffff81111561178657611785611371565b5b80860161179389826115bf565b85526020850194505050602081019050611763565b5050509392505050565b600082601f8301126117c7576117c6611371565b5b81516117d784826020860161172b565b91505092915050565b6000602082840312156117f6576117f5610d39565b5b600082015167ffffffffffffffff81111561181457611813610d3e565b5b611820848285016117b2565b91505092915050565b7f4e487b7100000000000000000000000000000000000000000000000000000000600052603260045260246000fd5b7f4e487b7100000000000000000000000000000000000000000000000000000000600052602260045260246000fd5b6000600282049050600182168061189f57607f821691505b6020821081036118b2576118b1611858565b5b50919050565b60008190508160005260206000209050919050565b60006020601f8301049050919050565b600082821b905092915050565b60006008830261191a7fffffffffffffffffffffffffffffffffffffffffffffffffffffffffffffffff826118dd565b61192486836118dd565b95508019841693508086168417925050509392505050565b600061195761195261194d84610d43565b611130565b610d43565b9050919050565b6000819050919050565b6119718361193c565b61198561197d8261195e565b8484546118ea565b825550505050565b600090565b61199a61198d565b6119a5818484611968565b505050565b5b818110156119c9576119be600082611992565b6001810190506119ab565b5050565b601f821115611a0e576119df816118b8565b6119e8846118cd565b810160208510156119f7578190505b611a0b611a03856118cd565b8301826119aa565b50505b505050565b600082821c905092915050565b6000611a3160001984600802611a13565b1980831691505092915050565b6000611a4a8383611a20565b9150826002028217905092915050565b611a6382610e49565b67ffffffffffffffff811115611a7c57611a7b611376565b5b611a868254611887565b611a918282856119cd565b600060209050601f831160018114611ac45760008415611ab2578287015190505b611abc8582611a3e565b865550611b24565b601f198416611ad2866118b8565b60005b82811015611afa57848901518255600182019150602085019450602081019050611ad5565b86831015611b175784890151611b13601f891682611a20565b8355505b6001600288020188555050505b505050505050565b7f4e487b7100000000000000000000000000000000000000000000000000000000600052601160045260246000fd5b6000611b6682610d43565b91507fffffffffffffffffffffffffffffffffffffffffffffffffffffffffffffffff8203611b9857611b97611b2c565b5b600182019050919050565b7f496e76616c69642044414f204944000000000000000000000000000000000000600082015250565b6000611bd9600e83611212565b9150611be482611ba3565b602082019050919050565b60006020820190508181036000830152611c0881611bcc565b905091905056fea2646970667358221220649875428c746a3557716c1ee1ffd3894e6b37feb755dd207a5df506f9e474ff64736f6c63430008120033",
  "linkReferences": {},
  "deployedLinkReferences": {}
}